{
	"contracts/Task2Contract.sol": {
		"KiralamaKontrati": {
			"abi": [
				{
					"anonymous": false,
					"inputs": [
						{
							"indexed": true,
							"internalType": "address",
							"name": "kiraciAdres",
							"type": "address"
						},
						{
							"indexed": true,
							"internalType": "address",
							"name": "mulkAdres",
							"type": "address"
						},
						{
							"indexed": false,
							"internalType": "uint256",
							"name": "kiraBaslangicTarihi",
							"type": "uint256"
						},
						{
							"indexed": false,
							"internalType": "uint256",
							"name": "kiraBitisTarihi",
							"type": "uint256"
						}
					],
					"name": "KiralamaOlusturuldu",
					"type": "event"
				},
				{
					"anonymous": false,
					"inputs": [
						{
							"indexed": true,
							"internalType": "address",
							"name": "kiraciAdres",
							"type": "address"
						},
						{
							"indexed": true,
							"internalType": "address",
							"name": "mulkAdres",
							"type": "address"
						}
					],
					"name": "KiralamaSonlandirildi",
					"type": "event"
				},
				{
					"anonymous": false,
					"inputs": [
						{
							"indexed": true,
							"internalType": "address",
							"name": "kiraciAdres",
							"type": "address"
						},
						{
							"indexed": false,
							"internalType": "string",
							"name": "ad",
							"type": "string"
						}
					],
					"name": "YeniKiraciEklendi",
					"type": "event"
				},
				{
					"anonymous": false,
					"inputs": [
						{
							"indexed": true,
							"internalType": "address",
							"name": "mulkAdres",
							"type": "address"
						},
						{
							"indexed": false,
							"internalType": "string",
							"name": "ad",
							"type": "string"
						}
					],
					"name": "YeniMulkEklendi",
					"type": "event"
				},
				{
					"inputs": [
						{
							"internalType": "string",
							"name": "ad",
							"type": "string"
						},
						{
							"internalType": "string",
							"name": "adresBilgisi",
							"type": "string"
						}
					],
					"name": "KiraciEkle",
					"outputs": [],
					"stateMutability": "nonpayable",
					"type": "function"
				},
				{
					"inputs": [
						{
							"internalType": "address",
							"name": "kiraciAdres",
							"type": "address"
						},
						{
							"internalType": "address",
							"name": "mulkAdres",
							"type": "address"
						},
						{
							"internalType": "uint256",
							"name": "kiralamaBaslangicTarihi",
							"type": "uint256"
						},
						{
							"internalType": "uint256",
							"name": "kiralamaBitisTarihi",
							"type": "uint256"
						}
					],
					"name": "KiralamaOlustur",
					"outputs": [],
					"stateMutability": "nonpayable",
					"type": "function"
				},
				{
					"inputs": [
						{
							"internalType": "uint256",
							"name": "kiraIndeks",
							"type": "uint256"
						}
					],
					"name": "KiralamaSonlandir",
					"outputs": [],
					"stateMutability": "nonpayable",
					"type": "function"
				},
				{
					"inputs": [
						{
							"internalType": "string",
							"name": "ad",
							"type": "string"
						},
						{
							"internalType": "string",
							"name": "adresBilgisi",
							"type": "string"
						}
					],
					"name": "MulkEkle",
					"outputs": [],
					"stateMutability": "nonpayable",
					"type": "function"
				},
				{
					"inputs": [
						{
							"internalType": "address",
							"name": "",
							"type": "address"
						}
					],
					"name": "kiracilar",
					"outputs": [
						{
							"internalType": "address",
							"name": "kiraciAdres",
							"type": "address"
						},
						{
							"internalType": "string",
							"name": "ad",
							"type": "string"
						},
						{
							"internalType": "string",
							"name": "adresBilgisi",
							"type": "string"
						}
					],
					"stateMutability": "view",
					"type": "function"
				},
				{
					"inputs": [
						{
							"internalType": "uint256",
							"name": "",
							"type": "uint256"
						}
					],
					"name": "kiralamalar",
					"outputs": [
						{
							"internalType": "address",
							"name": "kiraciAdres",
							"type": "address"
						},
						{
							"internalType": "address",
							"name": "mulkAdres",
							"type": "address"
						},
						{
							"internalType": "uint256",
							"name": "kiraBaslangicTarihi",
							"type": "uint256"
						},
						{
							"internalType": "uint256",
							"name": "kiraBitisTArihi",
							"type": "uint256"
						}
					],
					"stateMutability": "view",
					"type": "function"
				},
				{
					"inputs": [
						{
							"internalType": "address",
							"name": "",
							"type": "address"
						}
					],
					"name": "mulkler",
					"outputs": [
						{
							"internalType": "address",
							"name": "sahipAdres",
							"type": "address"
						},
						{
							"internalType": "string",
							"name": "ad",
							"type": "string"
						},
						{
							"internalType": "string",
							"name": "adresBilgisi",
							"type": "string"
						}
					],
					"stateMutability": "view",
					"type": "function"
				}
			],
			"devdoc": {
				"kind": "dev",
				"methods": {},
				"version": 1
			},
			"evm": {
				"assembly": "    /* \"contracts/Task2Contract.sol\":60:2514  contract KiralamaKontrati{... */\n  mstore(0x40, 0x80)\n  callvalue\n  dup1\n  iszero\n  tag_1\n  jumpi\n  0x00\n  dup1\n  revert\ntag_1:\n  pop\n  dataSize(sub_0)\n  dup1\n  dataOffset(sub_0)\n  0x00\n  codecopy\n  0x00\n  return\nstop\n\nsub_0: assembly {\n        /* \"contracts/Task2Contract.sol\":60:2514  contract KiralamaKontrati{... */\n      mstore(0x40, 0x80)\n      callvalue\n      dup1\n      iszero\n      tag_1\n      jumpi\n      0x00\n      dup1\n      revert\n    tag_1:\n      pop\n      jumpi(tag_2, lt(calldatasize, 0x04))\n      shr(0xe0, calldataload(0x00))\n      dup1\n      0x78cf3fe4\n      gt\n      tag_10\n      jumpi\n      dup1\n      0x78cf3fe4\n      eq\n      tag_6\n      jumpi\n      dup1\n      0xca399c39\n      eq\n      tag_7\n      jumpi\n      dup1\n      0xd9dbf11f\n      eq\n      tag_8\n      jumpi\n      dup1\n      0xff9599c0\n      eq\n      tag_9\n      jumpi\n      jump(tag_2)\n    tag_10:\n      dup1\n      0x1706d4a5\n      eq\n      tag_3\n      jumpi\n      dup1\n      0x539a9914\n      eq\n      tag_4\n      jumpi\n      dup1\n      0x655c127f\n      eq\n      tag_5\n      jumpi\n    tag_2:\n      0x00\n      dup1\n      revert\n        /* \"contracts/Task2Contract.sol\":464:505  mapping(address=>Kiraci) public kiracilar */\n    tag_3:\n      tag_11\n      0x04\n      dup1\n      calldatasize\n      sub\n      dup2\n      add\n      swap1\n      tag_12\n      swap2\n      swap1\n      tag_13\n      jump\t// in\n    tag_12:\n      tag_14\n      jump\t// in\n    tag_11:\n      mload(0x40)\n      tag_15\n      swap4\n      swap3\n      swap2\n      swap1\n      tag_16\n      jump\t// in\n    tag_15:\n      mload(0x40)\n      dup1\n      swap2\n      sub\n      swap1\n      return\n        /* \"contracts/Task2Contract.sol\":558:587  Kiralama[] public kiralamalar */\n    tag_4:\n      tag_17\n      0x04\n      dup1\n      calldatasize\n      sub\n      dup2\n      add\n      swap1\n      tag_18\n      swap2\n      swap1\n      tag_19\n      jump\t// in\n    tag_18:\n      tag_20\n      jump\t// in\n    tag_17:\n      mload(0x40)\n      tag_21\n      swap5\n      swap4\n      swap3\n      swap2\n      swap1\n      tag_22\n      jump\t// in\n    tag_21:\n      mload(0x40)\n      dup1\n      swap2\n      sub\n      swap1\n      return\n        /* \"contracts/Task2Contract.sol\":2071:2511  function KiralamaSonlandir(uint256 kiraIndeks) public{... */\n    tag_5:\n      tag_23\n      0x04\n      dup1\n      calldatasize\n      sub\n      dup2\n      add\n      swap1\n      tag_24\n      swap2\n      swap1\n      tag_19\n      jump\t// in\n    tag_24:\n      tag_25\n      jump\t// in\n    tag_23:\n      stop\n        /* \"contracts/Task2Contract.sol\":1462:1650  function MulkEkle(string memory ad, string memory adresBilgisi) public{... */\n    tag_6:\n      tag_26\n      0x04\n      dup1\n      calldatasize\n      sub\n      dup2\n      add\n      swap1\n      tag_27\n      swap2\n      swap1\n      tag_28\n      jump\t// in\n    tag_27:\n      tag_29\n      jump\t// in\n    tag_26:\n      stop\n        /* \"contracts/Task2Contract.sol\":1260:1456  function KiraciEkle(string memory ad,string memory adresBilgisi) public {... */\n    tag_7:\n      tag_30\n      0x04\n      dup1\n      calldatasize\n      sub\n      dup2\n      add\n      swap1\n      tag_31\n      swap2\n      swap1\n      tag_28\n      jump\t// in\n    tag_31:\n      tag_32\n      jump\t// in\n    tag_30:\n      stop\n        /* \"contracts/Task2Contract.sol\":512:551  mapping (address=>Mulk) public  mulkler */\n    tag_8:\n      tag_33\n      0x04\n      dup1\n      calldatasize\n      sub\n      dup2\n      add\n      swap1\n      tag_34\n      swap2\n      swap1\n      tag_13\n      jump\t// in\n    tag_34:\n      tag_35\n      jump\t// in\n    tag_33:\n      mload(0x40)\n      tag_36\n      swap4\n      swap3\n      swap2\n      swap1\n      tag_16\n      jump\t// in\n    tag_36:\n      mload(0x40)\n      dup1\n      swap2\n      sub\n      swap1\n      return\n        /* \"contracts/Task2Contract.sol\":1656:2063  function KiralamaOlustur(address kiraciAdres,address mulkAdres,uint256 kiralamaBaslangicTarihi,uint256 kiralamaBitisTarihi) public SadeceKiraciSahibi(kiraciAdres) SadeceMulkSahibi(mulkAdres){... */\n    tag_9:\n      tag_37\n      0x04\n      dup1\n      calldatasize\n      sub\n      dup2\n      add\n      swap1\n      tag_38\n      swap2\n      swap1\n      tag_39\n      jump\t// in\n    tag_38:\n      tag_40\n      jump\t// in\n    tag_37:\n      stop\n        /* \"contracts/Task2Contract.sol\":464:505  mapping(address=>Kiraci) public kiracilar */\n    tag_14:\n      mstore(0x20, 0x00)\n      dup1\n      0x00\n      mstore\n      keccak256(0x00, 0x40)\n      0x00\n      swap2\n      pop\n      swap1\n      pop\n      dup1\n      0x00\n      add\n      0x00\n      swap1\n      sload\n      swap1\n      0x0100\n      exp\n      swap1\n      div\n      0xffffffffffffffffffffffffffffffffffffffff\n      and\n      swap1\n      dup1\n      0x01\n      add\n      dup1\n      sload\n      tag_41\n      swap1\n      tag_42\n      jump\t// in\n    tag_41:\n      dup1\n      0x1f\n      add\n      0x20\n      dup1\n      swap2\n      div\n      mul\n      0x20\n      add\n      mload(0x40)\n      swap1\n      dup2\n      add\n      0x40\n      mstore\n      dup1\n      swap3\n      swap2\n      swap1\n      dup2\n      dup2\n      mstore\n      0x20\n      add\n      dup3\n      dup1\n      sload\n      tag_43\n      swap1\n      tag_42\n      jump\t// in\n    tag_43:\n      dup1\n      iszero\n      tag_44\n      jumpi\n      dup1\n      0x1f\n      lt\n      tag_45\n      jumpi\n      0x0100\n      dup1\n      dup4\n      sload\n      div\n      mul\n      dup4\n      mstore\n      swap2\n      0x20\n      add\n      swap2\n      jump(tag_44)\n    tag_45:\n      dup3\n      add\n      swap2\n      swap1\n      0x00\n      mstore\n      keccak256(0x00, 0x20)\n      swap1\n    tag_46:\n      dup2\n      sload\n      dup2\n      mstore\n      swap1\n      0x01\n      add\n      swap1\n      0x20\n      add\n      dup1\n      dup4\n      gt\n      tag_46\n      jumpi\n      dup3\n      swap1\n      sub\n      0x1f\n      and\n      dup3\n      add\n      swap2\n    tag_44:\n      pop\n      pop\n      pop\n      pop\n      pop\n      swap1\n      dup1\n      0x02\n      add\n      dup1\n      sload\n      tag_47\n      swap1\n      tag_42\n      jump\t// in\n    tag_47:\n      dup1\n      0x1f\n      add\n      0x20\n      dup1\n      swap2\n      div\n      mul\n      0x20\n      add\n      mload(0x40)\n      swap1\n      dup2\n      add\n      0x40\n      mstore\n      dup1\n      swap3\n      swap2\n      swap1\n      dup2\n      dup2\n      mstore\n      0x20\n      add\n      dup3\n      dup1\n      sload\n      tag_48\n      swap1\n      tag_42\n      jump\t// in\n    tag_48:\n      dup1\n      iszero\n      tag_49\n      jumpi\n      dup1\n      0x1f\n      lt\n      tag_50\n      jumpi\n      0x0100\n      dup1\n      dup4\n      sload\n      div\n      mul\n      dup4\n      mstore\n      swap2\n      0x20\n      add\n      swap2\n      jump(tag_49)\n    tag_50:\n      dup3\n      add\n      swap2\n      swap1\n      0x00\n      mstore\n      keccak256(0x00, 0x20)\n      swap1\n    tag_51:\n      dup2\n      sload\n      dup2\n      mstore\n      swap1\n      0x01\n      add\n      swap1\n      0x20\n      add\n      dup1\n      dup4\n      gt\n      tag_51\n      jumpi\n      dup3\n      swap1\n      sub\n      0x1f\n      and\n      dup3\n      add\n      swap2\n    tag_49:\n      pop\n      pop\n      pop\n      pop\n      pop\n      swap1\n      pop\n      dup4\n      jump\t// out\n        /* \"contracts/Task2Contract.sol\":558:587  Kiralama[] public kiralamalar */\n    tag_20:\n      0x02\n      dup2\n      dup2\n      sload\n      dup2\n      lt\n      tag_52\n      jumpi\n      0x00\n      dup1\n      revert\n    tag_52:\n      swap1\n      0x00\n      mstore\n      keccak256(0x00, 0x20)\n      swap1\n      0x04\n      mul\n      add\n      0x00\n      swap2\n      pop\n      swap1\n      pop\n      dup1\n      0x00\n      add\n      0x00\n      swap1\n      sload\n      swap1\n      0x0100\n      exp\n      swap1\n      div\n      0xffffffffffffffffffffffffffffffffffffffff\n      and\n      swap1\n      dup1\n      0x01\n      add\n      0x00\n      swap1\n      sload\n      swap1\n      0x0100\n      exp\n      swap1\n      div\n      0xffffffffffffffffffffffffffffffffffffffff\n      and\n      swap1\n      dup1\n      0x02\n      add\n      sload\n      swap1\n      dup1\n      0x03\n      add\n      sload\n      swap1\n      pop\n      dup5\n      jump\t// out\n        /* \"contracts/Task2Contract.sol\":2071:2511  function KiralamaSonlandir(uint256 kiraIndeks) public{... */\n    tag_25:\n        /* \"contracts/Task2Contract.sol\":2154:2165  kiralamalar */\n      0x02\n        /* \"contracts/Task2Contract.sol\":2154:2172  kiralamalar.length */\n      dup1\n      sload\n      swap1\n      pop\n        /* \"contracts/Task2Contract.sol\":2143:2153  kiraIndeks */\n      dup2\n        /* \"contracts/Task2Contract.sol\":2143:2172  kiraIndeks<kiralamalar.length */\n      lt\n        /* \"contracts/Task2Contract.sol\":2135:2197  require(kiraIndeks<kiralamalar.length,\"Gecersiz kira endeksi\") */\n      tag_55\n      jumpi\n      mload(0x40)\n      0x08c379a000000000000000000000000000000000000000000000000000000000\n      dup2\n      mstore\n      0x04\n      add\n      tag_56\n      swap1\n      tag_57\n      jump\t// in\n    tag_56:\n      mload(0x40)\n      dup1\n      swap2\n      sub\n      swap1\n      revert\n    tag_55:\n        /* \"contracts/Task2Contract.sol\":2208:2229  Kiralama storage kira */\n      0x00\n        /* \"contracts/Task2Contract.sol\":2230:2241  kiralamalar */\n      0x02\n        /* \"contracts/Task2Contract.sol\":2242:2252  kiraIndeks */\n      dup3\n        /* \"contracts/Task2Contract.sol\":2230:2253  kiralamalar[kiraIndeks] */\n      dup2\n      sload\n      dup2\n      lt\n      tag_58\n      jumpi\n      tag_59\n      tag_60\n      jump\t// in\n    tag_59:\n    tag_58:\n      swap1\n      0x00\n      mstore\n      keccak256(0x00, 0x20)\n      swap1\n      0x04\n      mul\n      add\n        /* \"contracts/Task2Contract.sol\":2208:2253  Kiralama storage kira=kiralamalar[kiraIndeks] */\n      swap1\n      pop\n        /* \"contracts/Task2Contract.sol\":2284:2288  kira */\n      dup1\n        /* \"contracts/Task2Contract.sol\":2284:2300  kira.kiraciAdres */\n      0x00\n      add\n      0x00\n      swap1\n      sload\n      swap1\n      0x0100\n      exp\n      swap1\n      div\n      0xffffffffffffffffffffffffffffffffffffffff\n      and\n        /* \"contracts/Task2Contract.sol\":2272:2300  msg.sender==kira.kiraciAdres */\n      0xffffffffffffffffffffffffffffffffffffffff\n      and\n        /* \"contracts/Task2Contract.sol\":2272:2282  msg.sender */\n      caller\n        /* \"contracts/Task2Contract.sol\":2272:2300  msg.sender==kira.kiraciAdres */\n      0xffffffffffffffffffffffffffffffffffffffff\n      and\n      eq\n        /* \"contracts/Task2Contract.sol\":2272:2350  msg.sender==kira.kiraciAdres || msg.sender==mulkler[kira.mulkAdres].sahipAdres */\n      dup1\n      tag_62\n      jumpi\n      pop\n        /* \"contracts/Task2Contract.sol\":2316:2323  mulkler */\n      0x01\n        /* \"contracts/Task2Contract.sol\":2316:2339  mulkler[kira.mulkAdres] */\n      0x00\n        /* \"contracts/Task2Contract.sol\":2324:2328  kira */\n      dup3\n        /* \"contracts/Task2Contract.sol\":2324:2338  kira.mulkAdres */\n      0x01\n      add\n      0x00\n      swap1\n      sload\n      swap1\n      0x0100\n      exp\n      swap1\n      div\n      0xffffffffffffffffffffffffffffffffffffffff\n      and\n        /* \"contracts/Task2Contract.sol\":2316:2339  mulkler[kira.mulkAdres] */\n      0xffffffffffffffffffffffffffffffffffffffff\n      and\n      0xffffffffffffffffffffffffffffffffffffffff\n      and\n      dup2\n      mstore\n      0x20\n      add\n      swap1\n      dup2\n      mstore\n      0x20\n      add\n      0x00\n      keccak256\n        /* \"contracts/Task2Contract.sol\":2316:2350  mulkler[kira.mulkAdres].sahipAdres */\n      0x00\n      add\n      0x00\n      swap1\n      sload\n      swap1\n      0x0100\n      exp\n      swap1\n      div\n      0xffffffffffffffffffffffffffffffffffffffff\n      and\n        /* \"contracts/Task2Contract.sol\":2304:2350  msg.sender==mulkler[kira.mulkAdres].sahipAdres */\n      0xffffffffffffffffffffffffffffffffffffffff\n      and\n        /* \"contracts/Task2Contract.sol\":2304:2314  msg.sender */\n      caller\n        /* \"contracts/Task2Contract.sol\":2304:2350  msg.sender==mulkler[kira.mulkAdres].sahipAdres */\n      0xffffffffffffffffffffffffffffffffffffffff\n      and\n      eq\n        /* \"contracts/Task2Contract.sol\":2272:2350  msg.sender==kira.kiraciAdres || msg.sender==mulkler[kira.mulkAdres].sahipAdres */\n    tag_62:\n        /* \"contracts/Task2Contract.sol\":2264:2389  require(msg.sender==kira.kiraciAdres || msg.sender==mulkler[kira.mulkAdres].sahipAdres,\"Bu kirayi sonlandirma yetkiniz yok.\") */\n      tag_63\n      jumpi\n      mload(0x40)\n      0x08c379a000000000000000000000000000000000000000000000000000000000\n      dup2\n      mstore\n      0x04\n      add\n      tag_64\n      swap1\n      tag_65\n      jump\t// in\n    tag_64:\n      mload(0x40)\n      dup1\n      swap2\n      sub\n      swap1\n      revert\n    tag_63:\n        /* \"contracts/Task2Contract.sol\":2407:2418  kiralamalar */\n      0x02\n        /* \"contracts/Task2Contract.sol\":2419:2429  kiraIndeks */\n      dup3\n        /* \"contracts/Task2Contract.sol\":2407:2430  kiralamalar[kiraIndeks] */\n      dup2\n      sload\n      dup2\n      lt\n      tag_66\n      jumpi\n      tag_67\n      tag_60\n      jump\t// in\n    tag_67:\n    tag_66:\n      swap1\n      0x00\n      mstore\n      keccak256(0x00, 0x20)\n      swap1\n      0x04\n      mul\n      add\n      0x00\n        /* \"contracts/Task2Contract.sol\":2400:2430  delete kiralamalar[kiraIndeks] */\n      dup1\n      dup3\n      add\n      exp(0x0100, 0x00)\n      dup2\n      sload\n      swap1\n      0xffffffffffffffffffffffffffffffffffffffff\n      mul\n      not\n      and\n      swap1\n      sstore\n      0x01\n      dup3\n      add\n      exp(0x0100, 0x00)\n      dup2\n      sload\n      swap1\n      0xffffffffffffffffffffffffffffffffffffffff\n      mul\n      not\n      and\n      swap1\n      sstore\n      0x02\n      dup3\n      add\n      0x00\n      swap1\n      sstore\n      0x03\n      dup3\n      add\n      0x00\n      swap1\n      sstore\n      pop\n      pop\n        /* \"contracts/Task2Contract.sol\":2486:2490  kira */\n      dup1\n        /* \"contracts/Task2Contract.sol\":2486:2500  kira.mulkAdres */\n      0x01\n      add\n      0x00\n      swap1\n      sload\n      swap1\n      0x0100\n      exp\n      swap1\n      div\n      0xffffffffffffffffffffffffffffffffffffffff\n      and\n        /* \"contracts/Task2Contract.sol\":2446:2501  KiralamaSonlandirildi(kira.kiraciAdres, kira.mulkAdres) */\n      0xffffffffffffffffffffffffffffffffffffffff\n      and\n        /* \"contracts/Task2Contract.sol\":2468:2472  kira */\n      dup2\n        /* \"contracts/Task2Contract.sol\":2468:2484  kira.kiraciAdres */\n      0x00\n      add\n      0x00\n      swap1\n      sload\n      swap1\n      0x0100\n      exp\n      swap1\n      div\n      0xffffffffffffffffffffffffffffffffffffffff\n      and\n        /* \"contracts/Task2Contract.sol\":2446:2501  KiralamaSonlandirildi(kira.kiraciAdres, kira.mulkAdres) */\n      0xffffffffffffffffffffffffffffffffffffffff\n      and\n      0x019c3ab800dd161d024ea5550fa205c593558278bd1d9e262582727de8744322\n      mload(0x40)\n      mload(0x40)\n      dup1\n      swap2\n      sub\n      swap1\n      log3\n        /* \"contracts/Task2Contract.sol\":2124:2511  {... */\n      pop\n        /* \"contracts/Task2Contract.sol\":2071:2511  function KiralamaSonlandir(uint256 kiraIndeks) public{... */\n      pop\n      jump\t// out\n        /* \"contracts/Task2Contract.sol\":1462:1650  function MulkEkle(string memory ad, string memory adresBilgisi) public{... */\n    tag_29:\n        /* \"contracts/Task2Contract.sol\":1563:1595  Mulk(msg.sender,ad,adresBilgisi) */\n      mload(0x40)\n      dup1\n      0x60\n      add\n      0x40\n      mstore\n      dup1\n        /* \"contracts/Task2Contract.sol\":1568:1578  msg.sender */\n      caller\n        /* \"contracts/Task2Contract.sol\":1563:1595  Mulk(msg.sender,ad,adresBilgisi) */\n      0xffffffffffffffffffffffffffffffffffffffff\n      and\n      dup2\n      mstore\n      0x20\n      add\n        /* \"contracts/Task2Contract.sol\":1579:1581  ad */\n      dup4\n        /* \"contracts/Task2Contract.sol\":1563:1595  Mulk(msg.sender,ad,adresBilgisi) */\n      dup2\n      mstore\n      0x20\n      add\n        /* \"contracts/Task2Contract.sol\":1582:1594  adresBilgisi */\n      dup3\n        /* \"contracts/Task2Contract.sol\":1563:1595  Mulk(msg.sender,ad,adresBilgisi) */\n      dup2\n      mstore\n      pop\n        /* \"contracts/Task2Contract.sol\":1543:1550  mulkler */\n      0x01\n        /* \"contracts/Task2Contract.sol\":1543:1562  mulkler[msg.sender] */\n      0x00\n        /* \"contracts/Task2Contract.sol\":1551:1561  msg.sender */\n      caller\n        /* \"contracts/Task2Contract.sol\":1543:1562  mulkler[msg.sender] */\n      0xffffffffffffffffffffffffffffffffffffffff\n      and\n      0xffffffffffffffffffffffffffffffffffffffff\n      and\n      dup2\n      mstore\n      0x20\n      add\n      swap1\n      dup2\n      mstore\n      0x20\n      add\n      0x00\n      keccak256\n        /* \"contracts/Task2Contract.sol\":1543:1595  mulkler[msg.sender]=Mulk(msg.sender,ad,adresBilgisi) */\n      0x00\n      dup3\n      add\n      mload\n      dup2\n      0x00\n      add\n      exp(0x0100, 0x00)\n      dup2\n      sload\n      dup2\n      0xffffffffffffffffffffffffffffffffffffffff\n      mul\n      not\n      and\n      swap1\n      dup4\n      0xffffffffffffffffffffffffffffffffffffffff\n      and\n      mul\n      or\n      swap1\n      sstore\n      pop\n      0x20\n      dup3\n      add\n      mload\n      dup2\n      0x01\n      add\n      swap1\n      dup2\n      tag_70\n      swap2\n      swap1\n      tag_71\n      jump\t// in\n    tag_70:\n      pop\n      0x40\n      dup3\n      add\n      mload\n      dup2\n      0x02\n      add\n      swap1\n      dup2\n      tag_72\n      swap2\n      swap1\n      tag_71\n      jump\t// in\n    tag_72:\n      pop\n      swap1\n      pop\n      pop\n        /* \"contracts/Task2Contract.sol\":1627:1637  msg.sender */\n      caller\n        /* \"contracts/Task2Contract.sol\":1611:1642  YeniMulkEklendi(msg.sender, ad) */\n      0xffffffffffffffffffffffffffffffffffffffff\n      and\n      0x95e79f8a3098e92716e1774be1dd5ee3683bedcb88da7996122f3bb4d52b108c\n        /* \"contracts/Task2Contract.sol\":1639:1641  ad */\n      dup4\n        /* \"contracts/Task2Contract.sol\":1611:1642  YeniMulkEklendi(msg.sender, ad) */\n      mload(0x40)\n      tag_73\n      swap2\n      swap1\n      tag_74\n      jump\t// in\n    tag_73:\n      mload(0x40)\n      dup1\n      swap2\n      sub\n      swap1\n      log2\n        /* \"contracts/Task2Contract.sol\":1462:1650  function MulkEkle(string memory ad, string memory adresBilgisi) public{... */\n      pop\n      pop\n      jump\t// out\n        /* \"contracts/Task2Contract.sol\":1260:1456  function KiraciEkle(string memory ad,string memory adresBilgisi) public {... */\n    tag_32:\n        /* \"contracts/Task2Contract.sol\":1365:1399  Kiraci(msg.sender,ad,adresBilgisi) */\n      mload(0x40)\n      dup1\n      0x60\n      add\n      0x40\n      mstore\n      dup1\n        /* \"contracts/Task2Contract.sol\":1372:1382  msg.sender */\n      caller\n        /* \"contracts/Task2Contract.sol\":1365:1399  Kiraci(msg.sender,ad,adresBilgisi) */\n      0xffffffffffffffffffffffffffffffffffffffff\n      and\n      dup2\n      mstore\n      0x20\n      add\n        /* \"contracts/Task2Contract.sol\":1383:1385  ad */\n      dup4\n        /* \"contracts/Task2Contract.sol\":1365:1399  Kiraci(msg.sender,ad,adresBilgisi) */\n      dup2\n      mstore\n      0x20\n      add\n        /* \"contracts/Task2Contract.sol\":1386:1398  adresBilgisi */\n      dup3\n        /* \"contracts/Task2Contract.sol\":1365:1399  Kiraci(msg.sender,ad,adresBilgisi) */\n      dup2\n      mstore\n      pop\n        /* \"contracts/Task2Contract.sol\":1343:1352  kiracilar */\n      0x00\n        /* \"contracts/Task2Contract.sol\":1343:1364  kiracilar[msg.sender] */\n      dup1\n        /* \"contracts/Task2Contract.sol\":1353:1363  msg.sender */\n      caller\n        /* \"contracts/Task2Contract.sol\":1343:1364  kiracilar[msg.sender] */\n      0xffffffffffffffffffffffffffffffffffffffff\n      and\n      0xffffffffffffffffffffffffffffffffffffffff\n      and\n      dup2\n      mstore\n      0x20\n      add\n      swap1\n      dup2\n      mstore\n      0x20\n      add\n      0x00\n      keccak256\n        /* \"contracts/Task2Contract.sol\":1343:1399  kiracilar[msg.sender]=Kiraci(msg.sender,ad,adresBilgisi) */\n      0x00\n      dup3\n      add\n      mload\n      dup2\n      0x00\n      add\n      exp(0x0100, 0x00)\n      dup2\n      sload\n      dup2\n      0xffffffffffffffffffffffffffffffffffffffff\n      mul\n      not\n      and\n      swap1\n      dup4\n      0xffffffffffffffffffffffffffffffffffffffff\n      and\n      mul\n      or\n      swap1\n      sstore\n      pop\n      0x20\n      dup3\n      add\n      mload\n      dup2\n      0x01\n      add\n      swap1\n      dup2\n      tag_76\n      swap2\n      swap1\n      tag_71\n      jump\t// in\n    tag_76:\n      pop\n      0x40\n      dup3\n      add\n      mload\n      dup2\n      0x02\n      add\n      swap1\n      dup2\n      tag_77\n      swap2\n      swap1\n      tag_71\n      jump\t// in\n    tag_77:\n      pop\n      swap1\n      pop\n      pop\n        /* \"contracts/Task2Contract.sol\":1433:1443  msg.sender */\n      caller\n        /* \"contracts/Task2Contract.sol\":1415:1448  YeniKiraciEklendi(msg.sender, ad) */\n      0xffffffffffffffffffffffffffffffffffffffff\n      and\n      0x5ece79a81f7cad89be3ec74311522c64ef780984a1101d5f5d73b7490907336e\n        /* \"contracts/Task2Contract.sol\":1445:1447  ad */\n      dup4\n        /* \"contracts/Task2Contract.sol\":1415:1448  YeniKiraciEklendi(msg.sender, ad) */\n      mload(0x40)\n      tag_78\n      swap2\n      swap1\n      tag_74\n      jump\t// in\n    tag_78:\n      mload(0x40)\n      dup1\n      swap2\n      sub\n      swap1\n      log2\n        /* \"contracts/Task2Contract.sol\":1260:1456  function KiraciEkle(string memory ad,string memory adresBilgisi) public {... */\n      pop\n      pop\n      jump\t// out\n        /* \"contracts/Task2Contract.sol\":512:551  mapping (address=>Mulk) public  mulkler */\n    tag_35:\n      mstore(0x20, 0x01)\n      dup1\n      0x00\n      mstore\n      keccak256(0x00, 0x40)\n      0x00\n      swap2\n      pop\n      swap1\n      pop\n      dup1\n      0x00\n      add\n      0x00\n      swap1\n      sload\n      swap1\n      0x0100\n      exp\n      swap1\n      div\n      0xffffffffffffffffffffffffffffffffffffffff\n      and\n      swap1\n      dup1\n      0x01\n      add\n      dup1\n      sload\n      tag_79\n      swap1\n      tag_42\n      jump\t// in\n    tag_79:\n      dup1\n      0x1f\n      add\n      0x20\n      dup1\n      swap2\n      div\n      mul\n      0x20\n      add\n      mload(0x40)\n      swap1\n      dup2\n      add\n      0x40\n      mstore\n      dup1\n      swap3\n      swap2\n      swap1\n      dup2\n      dup2\n      mstore\n      0x20\n      add\n      dup3\n      dup1\n      sload\n      tag_80\n      swap1\n      tag_42\n      jump\t// in\n    tag_80:\n      dup1\n      iszero\n      tag_81\n      jumpi\n      dup1\n      0x1f\n      lt\n      tag_82\n      jumpi\n      0x0100\n      dup1\n      dup4\n      sload\n      div\n      mul\n      dup4\n      mstore\n      swap2\n      0x20\n      add\n      swap2\n      jump(tag_81)\n    tag_82:\n      dup3\n      add\n      swap2\n      swap1\n      0x00\n      mstore\n      keccak256(0x00, 0x20)\n      swap1\n    tag_83:\n      dup2\n      sload\n      dup2\n      mstore\n      swap1\n      0x01\n      add\n      swap1\n      0x20\n      add\n      dup1\n      dup4\n      gt\n      tag_83\n      jumpi\n      dup3\n      swap1\n      sub\n      0x1f\n      and\n      dup3\n      add\n      swap2\n    tag_81:\n      pop\n      pop\n      pop\n      pop\n      pop\n      swap1\n      dup1\n      0x02\n      add\n      dup1\n      sload\n      tag_84\n      swap1\n      tag_42\n      jump\t// in\n    tag_84:\n      dup1\n      0x1f\n      add\n      0x20\n      dup1\n      swap2\n      div\n      mul\n      0x20\n      add\n      mload(0x40)\n      swap1\n      dup2\n      add\n      0x40\n      mstore\n      dup1\n      swap3\n      swap2\n      swap1\n      dup2\n      dup2\n      mstore\n      0x20\n      add\n      dup3\n      dup1\n      sload\n      tag_85\n      swap1\n      tag_42\n      jump\t// in\n    tag_85:\n      dup1\n      iszero\n      tag_86\n      jumpi\n      dup1\n      0x1f\n      lt\n      tag_87\n      jumpi\n      0x0100\n      dup1\n      dup4\n      sload\n      div\n      mul\n      dup4\n      mstore\n      swap2\n      0x20\n      add\n      swap2\n      jump(tag_86)\n    tag_87:\n      dup3\n      add\n      swap2\n      swap1\n      0x00\n      mstore\n      keccak256(0x00, 0x20)\n      swap1\n    tag_88:\n      dup2\n      sload\n      dup2\n      mstore\n      swap1\n      0x01\n      add\n      swap1\n      0x20\n      add\n      dup1\n      dup4\n      gt\n      tag_88\n      jumpi\n      dup3\n      swap1\n      sub\n      0x1f\n      and\n      dup3\n      add\n      swap2\n    tag_86:\n      pop\n      pop\n      pop\n      pop\n      pop\n      swap1\n      pop\n      dup4\n      jump\t// out\n        /* \"contracts/Task2Contract.sol\":1656:2063  function KiralamaOlustur(address kiraciAdres,address mulkAdres,uint256 kiralamaBaslangicTarihi,uint256 kiralamaBitisTarihi) public SadeceKiraciSahibi(kiraciAdres) SadeceMulkSahibi(mulkAdres){... */\n    tag_40:\n        /* \"contracts/Task2Contract.sol\":1806:1817  kiraciAdres */\n      dup4\n        /* \"contracts/Task2Contract.sol\":1044:1055  kiraciAdres */\n      dup1\n        /* \"contracts/Task2Contract.sol\":1032:1055  msg.sender==kiraciAdres */\n      0xffffffffffffffffffffffffffffffffffffffff\n      and\n        /* \"contracts/Task2Contract.sol\":1032:1042  msg.sender */\n      caller\n        /* \"contracts/Task2Contract.sol\":1032:1055  msg.sender==kiraciAdres */\n      0xffffffffffffffffffffffffffffffffffffffff\n      and\n      eq\n        /* \"contracts/Task2Contract.sol\":1024:1076  require(msg.sender==kiraciAdres,\"Kiraci degilsiniz\") */\n      tag_90\n      jumpi\n      mload(0x40)\n      0x08c379a000000000000000000000000000000000000000000000000000000000\n      dup2\n      mstore\n      0x04\n      add\n      tag_91\n      swap1\n      tag_92\n      jump\t// in\n    tag_91:\n      mload(0x40)\n      dup1\n      swap2\n      sub\n      swap1\n      revert\n    tag_90:\n        /* \"contracts/Task2Contract.sol\":1836:1845  mulkAdres */\n      dup4\n        /* \"contracts/Task2Contract.sol\":1178:1185  mulkler */\n      0x01\n        /* \"contracts/Task2Contract.sol\":1178:1196  mulkler[mulkAdres] */\n      0x00\n        /* \"contracts/Task2Contract.sol\":1186:1195  mulkAdres */\n      dup3\n        /* \"contracts/Task2Contract.sol\":1178:1196  mulkler[mulkAdres] */\n      0xffffffffffffffffffffffffffffffffffffffff\n      and\n      0xffffffffffffffffffffffffffffffffffffffff\n      and\n      dup2\n      mstore\n      0x20\n      add\n      swap1\n      dup2\n      mstore\n      0x20\n      add\n      0x00\n      keccak256\n        /* \"contracts/Task2Contract.sol\":1178:1207  mulkler[mulkAdres].sahipAdres */\n      0x00\n      add\n      0x00\n      swap1\n      sload\n      swap1\n      0x0100\n      exp\n      swap1\n      div\n      0xffffffffffffffffffffffffffffffffffffffff\n      and\n        /* \"contracts/Task2Contract.sol\":1166:1207  msg.sender==mulkler[mulkAdres].sahipAdres */\n      0xffffffffffffffffffffffffffffffffffffffff\n      and\n        /* \"contracts/Task2Contract.sol\":1166:1176  msg.sender */\n      caller\n        /* \"contracts/Task2Contract.sol\":1166:1207  msg.sender==mulkler[mulkAdres].sahipAdres */\n      0xffffffffffffffffffffffffffffffffffffffff\n      and\n      eq\n        /* \"contracts/Task2Contract.sol\":1158:1234  require(msg.sender==mulkler[mulkAdres].sahipAdres,\"Mulk sahibi degilsiniz.\") */\n      tag_94\n      jumpi\n      mload(0x40)\n      0x08c379a000000000000000000000000000000000000000000000000000000000\n      dup2\n      mstore\n      0x04\n      add\n      tag_95\n      swap1\n      tag_96\n      jump\t// in\n    tag_95:\n      mload(0x40)\n      dup1\n      swap2\n      sub\n      swap1\n      revert\n    tag_94:\n        /* \"contracts/Task2Contract.sol\":1857:1868  kiralamalar */\n      0x02\n        /* \"contracts/Task2Contract.sol\":1874:1949  Kiralama(kiraciAdres,mulkAdres,kiralamaBaslangicTarihi,kiralamaBitisTarihi) */\n      mload(0x40)\n      dup1\n      0x80\n      add\n      0x40\n      mstore\n      dup1\n        /* \"contracts/Task2Contract.sol\":1883:1894  kiraciAdres */\n      dup9\n        /* \"contracts/Task2Contract.sol\":1874:1949  Kiralama(kiraciAdres,mulkAdres,kiralamaBaslangicTarihi,kiralamaBitisTarihi) */\n      0xffffffffffffffffffffffffffffffffffffffff\n      and\n      dup2\n      mstore\n      0x20\n      add\n        /* \"contracts/Task2Contract.sol\":1895:1904  mulkAdres */\n      dup8\n        /* \"contracts/Task2Contract.sol\":1874:1949  Kiralama(kiraciAdres,mulkAdres,kiralamaBaslangicTarihi,kiralamaBitisTarihi) */\n      0xffffffffffffffffffffffffffffffffffffffff\n      and\n      dup2\n      mstore\n      0x20\n      add\n        /* \"contracts/Task2Contract.sol\":1905:1928  kiralamaBaslangicTarihi */\n      dup7\n        /* \"contracts/Task2Contract.sol\":1874:1949  Kiralama(kiraciAdres,mulkAdres,kiralamaBaslangicTarihi,kiralamaBitisTarihi) */\n      dup2\n      mstore\n      0x20\n      add\n        /* \"contracts/Task2Contract.sol\":1929:1948  kiralamaBitisTarihi */\n      dup6\n        /* \"contracts/Task2Contract.sol\":1874:1949  Kiralama(kiraciAdres,mulkAdres,kiralamaBaslangicTarihi,kiralamaBitisTarihi) */\n      dup2\n      mstore\n      pop\n        /* \"contracts/Task2Contract.sol\":1857:1950  kiralamalar.push(Kiralama(kiraciAdres,mulkAdres,kiralamaBaslangicTarihi,kiralamaBitisTarihi)) */\n      swap1\n      dup1\n      0x01\n      dup2\n      sload\n      add\n      dup1\n      dup3\n      sstore\n      dup1\n      swap2\n      pop\n      pop\n      0x01\n      swap1\n      sub\n      swap1\n      0x00\n      mstore\n      keccak256(0x00, 0x20)\n      swap1\n      0x04\n      mul\n      add\n      0x00\n      swap1\n      swap2\n      swap1\n      swap2\n      swap1\n      swap2\n      pop\n      0x00\n      dup3\n      add\n      mload\n      dup2\n      0x00\n      add\n      exp(0x0100, 0x00)\n      dup2\n      sload\n      dup2\n      0xffffffffffffffffffffffffffffffffffffffff\n      mul\n      not\n      and\n      swap1\n      dup4\n      0xffffffffffffffffffffffffffffffffffffffff\n      and\n      mul\n      or\n      swap1\n      sstore\n      pop\n      0x20\n      dup3\n      add\n      mload\n      dup2\n      0x01\n      add\n      exp(0x0100, 0x00)\n      dup2\n      sload\n      dup2\n      0xffffffffffffffffffffffffffffffffffffffff\n      mul\n      not\n      and\n      swap1\n      dup4\n      0xffffffffffffffffffffffffffffffffffffffff\n      and\n      mul\n      or\n      swap1\n      sstore\n      pop\n      0x40\n      dup3\n      add\n      mload\n      dup2\n      0x02\n      add\n      sstore\n      0x60\n      dup3\n      add\n      mload\n      dup2\n      0x03\n      add\n      sstore\n      pop\n      pop\n        /* \"contracts/Task2Contract.sol\":1999:2008  mulkAdres */\n      dup5\n        /* \"contracts/Task2Contract.sol\":1966:2055  KiralamaOlusturuldu(kiraciAdres, mulkAdres, kiralamaBaslangicTarihi, kiralamaBitisTarihi) */\n      0xffffffffffffffffffffffffffffffffffffffff\n      and\n        /* \"contracts/Task2Contract.sol\":1986:1997  kiraciAdres */\n      dup7\n        /* \"contracts/Task2Contract.sol\":1966:2055  KiralamaOlusturuldu(kiraciAdres, mulkAdres, kiralamaBaslangicTarihi, kiralamaBitisTarihi) */\n      0xffffffffffffffffffffffffffffffffffffffff\n      and\n      0x33ae89b2197ce5b87feec8152ea1c832d55bf86efafbb866f723ff2f558da893\n        /* \"contracts/Task2Contract.sol\":2010:2033  kiralamaBaslangicTarihi */\n      dup7\n        /* \"contracts/Task2Contract.sol\":2035:2054  kiralamaBitisTarihi */\n      dup7\n        /* \"contracts/Task2Contract.sol\":1966:2055  KiralamaOlusturuldu(kiraciAdres, mulkAdres, kiralamaBaslangicTarihi, kiralamaBitisTarihi) */\n      mload(0x40)\n      tag_99\n      swap3\n      swap2\n      swap1\n      tag_100\n      jump\t// in\n    tag_99:\n      mload(0x40)\n      dup1\n      swap2\n      sub\n      swap1\n      log3\n        /* \"contracts/Task2Contract.sol\":1087:1088  _ */\n      pop\n        /* \"contracts/Task2Contract.sol\":1656:2063  function KiralamaOlustur(address kiraciAdres,address mulkAdres,uint256 kiralamaBaslangicTarihi,uint256 kiralamaBitisTarihi) public SadeceKiraciSahibi(kiraciAdres) SadeceMulkSahibi(mulkAdres){... */\n      pop\n      pop\n      pop\n      pop\n      pop\n      jump\t// out\n        /* \"#utility.yul\":7:82   */\n    tag_101:\n        /* \"#utility.yul\":40:46   */\n      0x00\n        /* \"#utility.yul\":73:75   */\n      0x40\n        /* \"#utility.yul\":67:76   */\n      mload\n        /* \"#utility.yul\":57:76   */\n      swap1\n      pop\n        /* \"#utility.yul\":7:82   */\n      swap1\n      jump\t// out\n        /* \"#utility.yul\":88:205   */\n    tag_102:\n        /* \"#utility.yul\":197:198   */\n      0x00\n        /* \"#utility.yul\":194:195   */\n      dup1\n        /* \"#utility.yul\":187:199   */\n      revert\n        /* \"#utility.yul\":211:328   */\n    tag_103:\n        /* \"#utility.yul\":320:321   */\n      0x00\n        /* \"#utility.yul\":317:318   */\n      dup1\n        /* \"#utility.yul\":310:322   */\n      revert\n        /* \"#utility.yul\":334:460   */\n    tag_104:\n        /* \"#utility.yul\":371:378   */\n      0x00\n        /* \"#utility.yul\":411:453   */\n      0xffffffffffffffffffffffffffffffffffffffff\n        /* \"#utility.yul\":404:409   */\n      dup3\n        /* \"#utility.yul\":400:454   */\n      and\n        /* \"#utility.yul\":389:454   */\n      swap1\n      pop\n        /* \"#utility.yul\":334:460   */\n      swap2\n      swap1\n      pop\n      jump\t// out\n        /* \"#utility.yul\":466:562   */\n    tag_105:\n        /* \"#utility.yul\":503:510   */\n      0x00\n        /* \"#utility.yul\":532:556   */\n      tag_157\n        /* \"#utility.yul\":550:555   */\n      dup3\n        /* \"#utility.yul\":532:556   */\n      tag_104\n      jump\t// in\n    tag_157:\n        /* \"#utility.yul\":521:556   */\n      swap1\n      pop\n        /* \"#utility.yul\":466:562   */\n      swap2\n      swap1\n      pop\n      jump\t// out\n        /* \"#utility.yul\":568:690   */\n    tag_106:\n        /* \"#utility.yul\":641:665   */\n      tag_159\n        /* \"#utility.yul\":659:664   */\n      dup2\n        /* \"#utility.yul\":641:665   */\n      tag_105\n      jump\t// in\n    tag_159:\n        /* \"#utility.yul\":634:639   */\n      dup2\n        /* \"#utility.yul\":631:666   */\n      eq\n        /* \"#utility.yul\":621:684   */\n      tag_160\n      jumpi\n        /* \"#utility.yul\":680:681   */\n      0x00\n        /* \"#utility.yul\":677:678   */\n      dup1\n        /* \"#utility.yul\":670:682   */\n      revert\n        /* \"#utility.yul\":621:684   */\n    tag_160:\n        /* \"#utility.yul\":568:690   */\n      pop\n      jump\t// out\n        /* \"#utility.yul\":696:835   */\n    tag_107:\n        /* \"#utility.yul\":742:747   */\n      0x00\n        /* \"#utility.yul\":780:786   */\n      dup2\n        /* \"#utility.yul\":767:787   */\n      calldataload\n        /* \"#utility.yul\":758:787   */\n      swap1\n      pop\n        /* \"#utility.yul\":796:829   */\n      tag_162\n        /* \"#utility.yul\":823:828   */\n      dup2\n        /* \"#utility.yul\":796:829   */\n      tag_106\n      jump\t// in\n    tag_162:\n        /* \"#utility.yul\":696:835   */\n      swap3\n      swap2\n      pop\n      pop\n      jump\t// out\n        /* \"#utility.yul\":841:1170   */\n    tag_13:\n        /* \"#utility.yul\":900:906   */\n      0x00\n        /* \"#utility.yul\":949:951   */\n      0x20\n        /* \"#utility.yul\":937:946   */\n      dup3\n        /* \"#utility.yul\":928:935   */\n      dup5\n        /* \"#utility.yul\":924:947   */\n      sub\n        /* \"#utility.yul\":920:952   */\n      slt\n        /* \"#utility.yul\":917:1036   */\n      iszero\n      tag_164\n      jumpi\n        /* \"#utility.yul\":955:1034   */\n      tag_165\n      tag_102\n      jump\t// in\n    tag_165:\n        /* \"#utility.yul\":917:1036   */\n    tag_164:\n        /* \"#utility.yul\":1075:1076   */\n      0x00\n        /* \"#utility.yul\":1100:1153   */\n      tag_166\n        /* \"#utility.yul\":1145:1152   */\n      dup5\n        /* \"#utility.yul\":1136:1142   */\n      dup3\n        /* \"#utility.yul\":1125:1134   */\n      dup6\n        /* \"#utility.yul\":1121:1143   */\n      add\n        /* \"#utility.yul\":1100:1153   */\n      tag_107\n      jump\t// in\n    tag_166:\n        /* \"#utility.yul\":1090:1153   */\n      swap2\n      pop\n        /* \"#utility.yul\":1046:1163   */\n      pop\n        /* \"#utility.yul\":841:1170   */\n      swap3\n      swap2\n      pop\n      pop\n      jump\t// out\n        /* \"#utility.yul\":1176:1294   */\n    tag_108:\n        /* \"#utility.yul\":1263:1287   */\n      tag_168\n        /* \"#utility.yul\":1281:1286   */\n      dup2\n        /* \"#utility.yul\":1263:1287   */\n      tag_105\n      jump\t// in\n    tag_168:\n        /* \"#utility.yul\":1258:1261   */\n      dup3\n        /* \"#utility.yul\":1251:1288   */\n      mstore\n        /* \"#utility.yul\":1176:1294   */\n      pop\n      pop\n      jump\t// out\n        /* \"#utility.yul\":1300:1399   */\n    tag_109:\n        /* \"#utility.yul\":1352:1358   */\n      0x00\n        /* \"#utility.yul\":1386:1391   */\n      dup2\n        /* \"#utility.yul\":1380:1392   */\n      mload\n        /* \"#utility.yul\":1370:1392   */\n      swap1\n      pop\n        /* \"#utility.yul\":1300:1399   */\n      swap2\n      swap1\n      pop\n      jump\t// out\n        /* \"#utility.yul\":1405:1574   */\n    tag_110:\n        /* \"#utility.yul\":1489:1500   */\n      0x00\n        /* \"#utility.yul\":1523:1529   */\n      dup3\n        /* \"#utility.yul\":1518:1521   */\n      dup3\n        /* \"#utility.yul\":1511:1530   */\n      mstore\n        /* \"#utility.yul\":1563:1567   */\n      0x20\n        /* \"#utility.yul\":1558:1561   */\n      dup3\n        /* \"#utility.yul\":1554:1568   */\n      add\n        /* \"#utility.yul\":1539:1568   */\n      swap1\n      pop\n        /* \"#utility.yul\":1405:1574   */\n      swap3\n      swap2\n      pop\n      pop\n      jump\t// out\n        /* \"#utility.yul\":1580:1826   */\n    tag_111:\n        /* \"#utility.yul\":1661:1662   */\n      0x00\n        /* \"#utility.yul\":1671:1784   */\n    tag_172:\n        /* \"#utility.yul\":1685:1691   */\n      dup4\n        /* \"#utility.yul\":1682:1683   */\n      dup2\n        /* \"#utility.yul\":1679:1692   */\n      lt\n        /* \"#utility.yul\":1671:1784   */\n      iszero\n      tag_174\n      jumpi\n        /* \"#utility.yul\":1770:1771   */\n      dup1\n        /* \"#utility.yul\":1765:1768   */\n      dup3\n        /* \"#utility.yul\":1761:1772   */\n      add\n        /* \"#utility.yul\":1755:1773   */\n      mload\n        /* \"#utility.yul\":1751:1752   */\n      dup2\n        /* \"#utility.yul\":1746:1749   */\n      dup5\n        /* \"#utility.yul\":1742:1753   */\n      add\n        /* \"#utility.yul\":1735:1774   */\n      mstore\n        /* \"#utility.yul\":1707:1709   */\n      0x20\n        /* \"#utility.yul\":1704:1705   */\n      dup2\n        /* \"#utility.yul\":1700:1710   */\n      add\n        /* \"#utility.yul\":1695:1710   */\n      swap1\n      pop\n        /* \"#utility.yul\":1671:1784   */\n      jump(tag_172)\n    tag_174:\n        /* \"#utility.yul\":1818:1819   */\n      0x00\n        /* \"#utility.yul\":1809:1815   */\n      dup5\n        /* \"#utility.yul\":1804:1807   */\n      dup5\n        /* \"#utility.yul\":1800:1816   */\n      add\n        /* \"#utility.yul\":1793:1820   */\n      mstore\n        /* \"#utility.yul\":1642:1826   */\n      pop\n        /* \"#utility.yul\":1580:1826   */\n      pop\n      pop\n      pop\n      jump\t// out\n        /* \"#utility.yul\":1832:1934   */\n    tag_112:\n        /* \"#utility.yul\":1873:1879   */\n      0x00\n        /* \"#utility.yul\":1924:1926   */\n      0x1f\n        /* \"#utility.yul\":1920:1927   */\n      not\n        /* \"#utility.yul\":1915:1917   */\n      0x1f\n        /* \"#utility.yul\":1908:1913   */\n      dup4\n        /* \"#utility.yul\":1904:1918   */\n      add\n        /* \"#utility.yul\":1900:1928   */\n      and\n        /* \"#utility.yul\":1890:1928   */\n      swap1\n      pop\n        /* \"#utility.yul\":1832:1934   */\n      swap2\n      swap1\n      pop\n      jump\t// out\n        /* \"#utility.yul\":1940:2317   */\n    tag_113:\n        /* \"#utility.yul\":2028:2031   */\n      0x00\n        /* \"#utility.yul\":2056:2095   */\n      tag_177\n        /* \"#utility.yul\":2089:2094   */\n      dup3\n        /* \"#utility.yul\":2056:2095   */\n      tag_109\n      jump\t// in\n    tag_177:\n        /* \"#utility.yul\":2111:2182   */\n      tag_178\n        /* \"#utility.yul\":2175:2181   */\n      dup2\n        /* \"#utility.yul\":2170:2173   */\n      dup6\n        /* \"#utility.yul\":2111:2182   */\n      tag_110\n      jump\t// in\n    tag_178:\n        /* \"#utility.yul\":2104:2182   */\n      swap4\n      pop\n        /* \"#utility.yul\":2191:2256   */\n      tag_179\n        /* \"#utility.yul\":2249:2255   */\n      dup2\n        /* \"#utility.yul\":2244:2247   */\n      dup6\n        /* \"#utility.yul\":2237:2241   */\n      0x20\n        /* \"#utility.yul\":2230:2235   */\n      dup7\n        /* \"#utility.yul\":2226:2242   */\n      add\n        /* \"#utility.yul\":2191:2256   */\n      tag_111\n      jump\t// in\n    tag_179:\n        /* \"#utility.yul\":2281:2310   */\n      tag_180\n        /* \"#utility.yul\":2303:2309   */\n      dup2\n        /* \"#utility.yul\":2281:2310   */\n      tag_112\n      jump\t// in\n    tag_180:\n        /* \"#utility.yul\":2276:2279   */\n      dup5\n        /* \"#utility.yul\":2272:2311   */\n      add\n        /* \"#utility.yul\":2265:2311   */\n      swap2\n      pop\n        /* \"#utility.yul\":2032:2317   */\n      pop\n        /* \"#utility.yul\":1940:2317   */\n      swap3\n      swap2\n      pop\n      pop\n      jump\t// out\n        /* \"#utility.yul\":2323:2947   */\n    tag_16:\n        /* \"#utility.yul\":2512:2516   */\n      0x00\n        /* \"#utility.yul\":2550:2552   */\n      0x60\n        /* \"#utility.yul\":2539:2548   */\n      dup3\n        /* \"#utility.yul\":2535:2553   */\n      add\n        /* \"#utility.yul\":2527:2553   */\n      swap1\n      pop\n        /* \"#utility.yul\":2563:2634   */\n      tag_182\n        /* \"#utility.yul\":2631:2632   */\n      0x00\n        /* \"#utility.yul\":2620:2629   */\n      dup4\n        /* \"#utility.yul\":2616:2633   */\n      add\n        /* \"#utility.yul\":2607:2613   */\n      dup7\n        /* \"#utility.yul\":2563:2634   */\n      tag_108\n      jump\t// in\n    tag_182:\n        /* \"#utility.yul\":2681:2690   */\n      dup2\n        /* \"#utility.yul\":2675:2679   */\n      dup2\n        /* \"#utility.yul\":2671:2691   */\n      sub\n        /* \"#utility.yul\":2666:2668   */\n      0x20\n        /* \"#utility.yul\":2655:2664   */\n      dup4\n        /* \"#utility.yul\":2651:2669   */\n      add\n        /* \"#utility.yul\":2644:2692   */\n      mstore\n        /* \"#utility.yul\":2709:2787   */\n      tag_183\n        /* \"#utility.yul\":2782:2786   */\n      dup2\n        /* \"#utility.yul\":2773:2779   */\n      dup6\n        /* \"#utility.yul\":2709:2787   */\n      tag_113\n      jump\t// in\n    tag_183:\n        /* \"#utility.yul\":2701:2787   */\n      swap1\n      pop\n        /* \"#utility.yul\":2834:2843   */\n      dup2\n        /* \"#utility.yul\":2828:2832   */\n      dup2\n        /* \"#utility.yul\":2824:2844   */\n      sub\n        /* \"#utility.yul\":2819:2821   */\n      0x40\n        /* \"#utility.yul\":2808:2817   */\n      dup4\n        /* \"#utility.yul\":2804:2822   */\n      add\n        /* \"#utility.yul\":2797:2845   */\n      mstore\n        /* \"#utility.yul\":2862:2940   */\n      tag_184\n        /* \"#utility.yul\":2935:2939   */\n      dup2\n        /* \"#utility.yul\":2926:2932   */\n      dup5\n        /* \"#utility.yul\":2862:2940   */\n      tag_113\n      jump\t// in\n    tag_184:\n        /* \"#utility.yul\":2854:2940   */\n      swap1\n      pop\n        /* \"#utility.yul\":2323:2947   */\n      swap5\n      swap4\n      pop\n      pop\n      pop\n      pop\n      jump\t// out\n        /* \"#utility.yul\":2953:3030   */\n    tag_114:\n        /* \"#utility.yul\":2990:2997   */\n      0x00\n        /* \"#utility.yul\":3019:3024   */\n      dup2\n        /* \"#utility.yul\":3008:3024   */\n      swap1\n      pop\n        /* \"#utility.yul\":2953:3030   */\n      swap2\n      swap1\n      pop\n      jump\t// out\n        /* \"#utility.yul\":3036:3158   */\n    tag_115:\n        /* \"#utility.yul\":3109:3133   */\n      tag_187\n        /* \"#utility.yul\":3127:3132   */\n      dup2\n        /* \"#utility.yul\":3109:3133   */\n      tag_114\n      jump\t// in\n    tag_187:\n        /* \"#utility.yul\":3102:3107   */\n      dup2\n        /* \"#utility.yul\":3099:3134   */\n      eq\n        /* \"#utility.yul\":3089:3152   */\n      tag_188\n      jumpi\n        /* \"#utility.yul\":3148:3149   */\n      0x00\n        /* \"#utility.yul\":3145:3146   */\n      dup1\n        /* \"#utility.yul\":3138:3150   */\n      revert\n        /* \"#utility.yul\":3089:3152   */\n    tag_188:\n        /* \"#utility.yul\":3036:3158   */\n      pop\n      jump\t// out\n        /* \"#utility.yul\":3164:3303   */\n    tag_116:\n        /* \"#utility.yul\":3210:3215   */\n      0x00\n        /* \"#utility.yul\":3248:3254   */\n      dup2\n        /* \"#utility.yul\":3235:3255   */\n      calldataload\n        /* \"#utility.yul\":3226:3255   */\n      swap1\n      pop\n        /* \"#utility.yul\":3264:3297   */\n      tag_190\n        /* \"#utility.yul\":3291:3296   */\n      dup2\n        /* \"#utility.yul\":3264:3297   */\n      tag_115\n      jump\t// in\n    tag_190:\n        /* \"#utility.yul\":3164:3303   */\n      swap3\n      swap2\n      pop\n      pop\n      jump\t// out\n        /* \"#utility.yul\":3309:3638   */\n    tag_19:\n        /* \"#utility.yul\":3368:3374   */\n      0x00\n        /* \"#utility.yul\":3417:3419   */\n      0x20\n        /* \"#utility.yul\":3405:3414   */\n      dup3\n        /* \"#utility.yul\":3396:3403   */\n      dup5\n        /* \"#utility.yul\":3392:3415   */\n      sub\n        /* \"#utility.yul\":3388:3420   */\n      slt\n        /* \"#utility.yul\":3385:3504   */\n      iszero\n      tag_192\n      jumpi\n        /* \"#utility.yul\":3423:3502   */\n      tag_193\n      tag_102\n      jump\t// in\n    tag_193:\n        /* \"#utility.yul\":3385:3504   */\n    tag_192:\n        /* \"#utility.yul\":3543:3544   */\n      0x00\n        /* \"#utility.yul\":3568:3621   */\n      tag_194\n        /* \"#utility.yul\":3613:3620   */\n      dup5\n        /* \"#utility.yul\":3604:3610   */\n      dup3\n        /* \"#utility.yul\":3593:3602   */\n      dup6\n        /* \"#utility.yul\":3589:3611   */\n      add\n        /* \"#utility.yul\":3568:3621   */\n      tag_116\n      jump\t// in\n    tag_194:\n        /* \"#utility.yul\":3558:3621   */\n      swap2\n      pop\n        /* \"#utility.yul\":3514:3631   */\n      pop\n        /* \"#utility.yul\":3309:3638   */\n      swap3\n      swap2\n      pop\n      pop\n      jump\t// out\n        /* \"#utility.yul\":3644:3762   */\n    tag_117:\n        /* \"#utility.yul\":3731:3755   */\n      tag_196\n        /* \"#utility.yul\":3749:3754   */\n      dup2\n        /* \"#utility.yul\":3731:3755   */\n      tag_114\n      jump\t// in\n    tag_196:\n        /* \"#utility.yul\":3726:3729   */\n      dup3\n        /* \"#utility.yul\":3719:3756   */\n      mstore\n        /* \"#utility.yul\":3644:3762   */\n      pop\n      pop\n      jump\t// out\n        /* \"#utility.yul\":3768:4321   */\n    tag_22:\n        /* \"#utility.yul\":3945:3949   */\n      0x00\n        /* \"#utility.yul\":3983:3986   */\n      0x80\n        /* \"#utility.yul\":3972:3981   */\n      dup3\n        /* \"#utility.yul\":3968:3987   */\n      add\n        /* \"#utility.yul\":3960:3987   */\n      swap1\n      pop\n        /* \"#utility.yul\":3997:4068   */\n      tag_198\n        /* \"#utility.yul\":4065:4066   */\n      0x00\n        /* \"#utility.yul\":4054:4063   */\n      dup4\n        /* \"#utility.yul\":4050:4067   */\n      add\n        /* \"#utility.yul\":4041:4047   */\n      dup8\n        /* \"#utility.yul\":3997:4068   */\n      tag_108\n      jump\t// in\n    tag_198:\n        /* \"#utility.yul\":4078:4150   */\n      tag_199\n        /* \"#utility.yul\":4146:4148   */\n      0x20\n        /* \"#utility.yul\":4135:4144   */\n      dup4\n        /* \"#utility.yul\":4131:4149   */\n      add\n        /* \"#utility.yul\":4122:4128   */\n      dup7\n        /* \"#utility.yul\":4078:4150   */\n      tag_108\n      jump\t// in\n    tag_199:\n        /* \"#utility.yul\":4160:4232   */\n      tag_200\n        /* \"#utility.yul\":4228:4230   */\n      0x40\n        /* \"#utility.yul\":4217:4226   */\n      dup4\n        /* \"#utility.yul\":4213:4231   */\n      add\n        /* \"#utility.yul\":4204:4210   */\n      dup6\n        /* \"#utility.yul\":4160:4232   */\n      tag_117\n      jump\t// in\n    tag_200:\n        /* \"#utility.yul\":4242:4314   */\n      tag_201\n        /* \"#utility.yul\":4310:4312   */\n      0x60\n        /* \"#utility.yul\":4299:4308   */\n      dup4\n        /* \"#utility.yul\":4295:4313   */\n      add\n        /* \"#utility.yul\":4286:4292   */\n      dup5\n        /* \"#utility.yul\":4242:4314   */\n      tag_117\n      jump\t// in\n    tag_201:\n        /* \"#utility.yul\":3768:4321   */\n      swap6\n      swap5\n      pop\n      pop\n      pop\n      pop\n      pop\n      jump\t// out\n        /* \"#utility.yul\":4327:4444   */\n    tag_118:\n        /* \"#utility.yul\":4436:4437   */\n      0x00\n        /* \"#utility.yul\":4433:4434   */\n      dup1\n        /* \"#utility.yul\":4426:4438   */\n      revert\n        /* \"#utility.yul\":4450:4567   */\n    tag_119:\n        /* \"#utility.yul\":4559:4560   */\n      0x00\n        /* \"#utility.yul\":4556:4557   */\n      dup1\n        /* \"#utility.yul\":4549:4561   */\n      revert\n        /* \"#utility.yul\":4573:4753   */\n    tag_120:\n        /* \"#utility.yul\":4621:4698   */\n      0x4e487b7100000000000000000000000000000000000000000000000000000000\n        /* \"#utility.yul\":4618:4619   */\n      0x00\n        /* \"#utility.yul\":4611:4699   */\n      mstore\n        /* \"#utility.yul\":4718:4722   */\n      0x41\n        /* \"#utility.yul\":4715:4716   */\n      0x04\n        /* \"#utility.yul\":4708:4723   */\n      mstore\n        /* \"#utility.yul\":4742:4746   */\n      0x24\n        /* \"#utility.yul\":4739:4740   */\n      0x00\n        /* \"#utility.yul\":4732:4747   */\n      revert\n        /* \"#utility.yul\":4759:5040   */\n    tag_121:\n        /* \"#utility.yul\":4842:4869   */\n      tag_206\n        /* \"#utility.yul\":4864:4868   */\n      dup3\n        /* \"#utility.yul\":4842:4869   */\n      tag_112\n      jump\t// in\n    tag_206:\n        /* \"#utility.yul\":4834:4840   */\n      dup2\n        /* \"#utility.yul\":4830:4870   */\n      add\n        /* \"#utility.yul\":4972:4978   */\n      dup2\n        /* \"#utility.yul\":4960:4970   */\n      dup2\n        /* \"#utility.yul\":4957:4979   */\n      lt\n        /* \"#utility.yul\":4936:4954   */\n      0xffffffffffffffff\n        /* \"#utility.yul\":4924:4934   */\n      dup3\n        /* \"#utility.yul\":4921:4955   */\n      gt\n        /* \"#utility.yul\":4918:4980   */\n      or\n        /* \"#utility.yul\":4915:5003   */\n      iszero\n      tag_207\n      jumpi\n        /* \"#utility.yul\":4983:5001   */\n      tag_208\n      tag_120\n      jump\t// in\n    tag_208:\n        /* \"#utility.yul\":4915:5003   */\n    tag_207:\n        /* \"#utility.yul\":5023:5033   */\n      dup1\n        /* \"#utility.yul\":5019:5021   */\n      0x40\n        /* \"#utility.yul\":5012:5034   */\n      mstore\n        /* \"#utility.yul\":4802:5040   */\n      pop\n        /* \"#utility.yul\":4759:5040   */\n      pop\n      pop\n      jump\t// out\n        /* \"#utility.yul\":5046:5175   */\n    tag_122:\n        /* \"#utility.yul\":5080:5086   */\n      0x00\n        /* \"#utility.yul\":5107:5127   */\n      tag_210\n      tag_101\n      jump\t// in\n    tag_210:\n        /* \"#utility.yul\":5097:5127   */\n      swap1\n      pop\n        /* \"#utility.yul\":5136:5169   */\n      tag_211\n        /* \"#utility.yul\":5164:5168   */\n      dup3\n        /* \"#utility.yul\":5156:5162   */\n      dup3\n        /* \"#utility.yul\":5136:5169   */\n      tag_121\n      jump\t// in\n    tag_211:\n        /* \"#utility.yul\":5046:5175   */\n      swap2\n      swap1\n      pop\n      jump\t// out\n        /* \"#utility.yul\":5181:5489   */\n    tag_123:\n        /* \"#utility.yul\":5243:5247   */\n      0x00\n        /* \"#utility.yul\":5333:5351   */\n      0xffffffffffffffff\n        /* \"#utility.yul\":5325:5331   */\n      dup3\n        /* \"#utility.yul\":5322:5352   */\n      gt\n        /* \"#utility.yul\":5319:5375   */\n      iszero\n      tag_213\n      jumpi\n        /* \"#utility.yul\":5355:5373   */\n      tag_214\n      tag_120\n      jump\t// in\n    tag_214:\n        /* \"#utility.yul\":5319:5375   */\n    tag_213:\n        /* \"#utility.yul\":5393:5422   */\n      tag_215\n        /* \"#utility.yul\":5415:5421   */\n      dup3\n        /* \"#utility.yul\":5393:5422   */\n      tag_112\n      jump\t// in\n    tag_215:\n        /* \"#utility.yul\":5385:5422   */\n      swap1\n      pop\n        /* \"#utility.yul\":5477:5481   */\n      0x20\n        /* \"#utility.yul\":5471:5475   */\n      dup2\n        /* \"#utility.yul\":5467:5482   */\n      add\n        /* \"#utility.yul\":5459:5482   */\n      swap1\n      pop\n        /* \"#utility.yul\":5181:5489   */\n      swap2\n      swap1\n      pop\n      jump\t// out\n        /* \"#utility.yul\":5495:5641   */\n    tag_124:\n        /* \"#utility.yul\":5592:5598   */\n      dup3\n        /* \"#utility.yul\":5587:5590   */\n      dup2\n        /* \"#utility.yul\":5582:5585   */\n      dup4\n        /* \"#utility.yul\":5569:5599   */\n      calldatacopy\n        /* \"#utility.yul\":5633:5634   */\n      0x00\n        /* \"#utility.yul\":5624:5630   */\n      dup4\n        /* \"#utility.yul\":5619:5622   */\n      dup4\n        /* \"#utility.yul\":5615:5631   */\n      add\n        /* \"#utility.yul\":5608:5635   */\n      mstore\n        /* \"#utility.yul\":5495:5641   */\n      pop\n      pop\n      pop\n      jump\t// out\n        /* \"#utility.yul\":5647:6072   */\n    tag_125:\n        /* \"#utility.yul\":5725:5730   */\n      0x00\n        /* \"#utility.yul\":5750:5816   */\n      tag_218\n        /* \"#utility.yul\":5766:5815   */\n      tag_219\n        /* \"#utility.yul\":5808:5814   */\n      dup5\n        /* \"#utility.yul\":5766:5815   */\n      tag_123\n      jump\t// in\n    tag_219:\n        /* \"#utility.yul\":5750:5816   */\n      tag_122\n      jump\t// in\n    tag_218:\n        /* \"#utility.yul\":5741:5816   */\n      swap1\n      pop\n        /* \"#utility.yul\":5839:5845   */\n      dup3\n        /* \"#utility.yul\":5832:5837   */\n      dup2\n        /* \"#utility.yul\":5825:5846   */\n      mstore\n        /* \"#utility.yul\":5877:5881   */\n      0x20\n        /* \"#utility.yul\":5870:5875   */\n      dup2\n        /* \"#utility.yul\":5866:5882   */\n      add\n        /* \"#utility.yul\":5915:5918   */\n      dup5\n        /* \"#utility.yul\":5906:5912   */\n      dup5\n        /* \"#utility.yul\":5901:5904   */\n      dup5\n        /* \"#utility.yul\":5897:5913   */\n      add\n        /* \"#utility.yul\":5894:5919   */\n      gt\n        /* \"#utility.yul\":5891:6003   */\n      iszero\n      tag_220\n      jumpi\n        /* \"#utility.yul\":5922:6001   */\n      tag_221\n      tag_119\n      jump\t// in\n    tag_221:\n        /* \"#utility.yul\":5891:6003   */\n    tag_220:\n        /* \"#utility.yul\":6012:6066   */\n      tag_222\n        /* \"#utility.yul\":6059:6065   */\n      dup5\n        /* \"#utility.yul\":6054:6057   */\n      dup3\n        /* \"#utility.yul\":6049:6052   */\n      dup6\n        /* \"#utility.yul\":6012:6066   */\n      tag_124\n      jump\t// in\n    tag_222:\n        /* \"#utility.yul\":5731:6072   */\n      pop\n        /* \"#utility.yul\":5647:6072   */\n      swap4\n      swap3\n      pop\n      pop\n      pop\n      jump\t// out\n        /* \"#utility.yul\":6092:6432   */\n    tag_126:\n        /* \"#utility.yul\":6148:6153   */\n      0x00\n        /* \"#utility.yul\":6197:6200   */\n      dup3\n        /* \"#utility.yul\":6190:6194   */\n      0x1f\n        /* \"#utility.yul\":6182:6188   */\n      dup4\n        /* \"#utility.yul\":6178:6195   */\n      add\n        /* \"#utility.yul\":6174:6201   */\n      slt\n        /* \"#utility.yul\":6164:6286   */\n      tag_224\n      jumpi\n        /* \"#utility.yul\":6205:6284   */\n      tag_225\n      tag_118\n      jump\t// in\n    tag_225:\n        /* \"#utility.yul\":6164:6286   */\n    tag_224:\n        /* \"#utility.yul\":6322:6328   */\n      dup2\n        /* \"#utility.yul\":6309:6329   */\n      calldataload\n        /* \"#utility.yul\":6347:6426   */\n      tag_226\n        /* \"#utility.yul\":6422:6425   */\n      dup5\n        /* \"#utility.yul\":6414:6420   */\n      dup3\n        /* \"#utility.yul\":6407:6411   */\n      0x20\n        /* \"#utility.yul\":6399:6405   */\n      dup7\n        /* \"#utility.yul\":6395:6412   */\n      add\n        /* \"#utility.yul\":6347:6426   */\n      tag_125\n      jump\t// in\n    tag_226:\n        /* \"#utility.yul\":6338:6426   */\n      swap2\n      pop\n        /* \"#utility.yul\":6154:6432   */\n      pop\n        /* \"#utility.yul\":6092:6432   */\n      swap3\n      swap2\n      pop\n      pop\n      jump\t// out\n        /* \"#utility.yul\":6438:7272   */\n    tag_28:\n        /* \"#utility.yul\":6526:6532   */\n      0x00\n        /* \"#utility.yul\":6534:6540   */\n      dup1\n        /* \"#utility.yul\":6583:6585   */\n      0x40\n        /* \"#utility.yul\":6571:6580   */\n      dup4\n        /* \"#utility.yul\":6562:6569   */\n      dup6\n        /* \"#utility.yul\":6558:6581   */\n      sub\n        /* \"#utility.yul\":6554:6586   */\n      slt\n        /* \"#utility.yul\":6551:6670   */\n      iszero\n      tag_228\n      jumpi\n        /* \"#utility.yul\":6589:6668   */\n      tag_229\n      tag_102\n      jump\t// in\n    tag_229:\n        /* \"#utility.yul\":6551:6670   */\n    tag_228:\n        /* \"#utility.yul\":6737:6738   */\n      0x00\n        /* \"#utility.yul\":6726:6735   */\n      dup4\n        /* \"#utility.yul\":6722:6739   */\n      add\n        /* \"#utility.yul\":6709:6740   */\n      calldataload\n        /* \"#utility.yul\":6767:6785   */\n      0xffffffffffffffff\n        /* \"#utility.yul\":6759:6765   */\n      dup2\n        /* \"#utility.yul\":6756:6786   */\n      gt\n        /* \"#utility.yul\":6753:6870   */\n      iszero\n      tag_230\n      jumpi\n        /* \"#utility.yul\":6789:6868   */\n      tag_231\n      tag_103\n      jump\t// in\n    tag_231:\n        /* \"#utility.yul\":6753:6870   */\n    tag_230:\n        /* \"#utility.yul\":6894:6957   */\n      tag_232\n        /* \"#utility.yul\":6949:6956   */\n      dup6\n        /* \"#utility.yul\":6940:6946   */\n      dup3\n        /* \"#utility.yul\":6929:6938   */\n      dup7\n        /* \"#utility.yul\":6925:6947   */\n      add\n        /* \"#utility.yul\":6894:6957   */\n      tag_126\n      jump\t// in\n    tag_232:\n        /* \"#utility.yul\":6884:6957   */\n      swap3\n      pop\n        /* \"#utility.yul\":6680:6967   */\n      pop\n        /* \"#utility.yul\":7034:7036   */\n      0x20\n        /* \"#utility.yul\":7023:7032   */\n      dup4\n        /* \"#utility.yul\":7019:7037   */\n      add\n        /* \"#utility.yul\":7006:7038   */\n      calldataload\n        /* \"#utility.yul\":7065:7083   */\n      0xffffffffffffffff\n        /* \"#utility.yul\":7057:7063   */\n      dup2\n        /* \"#utility.yul\":7054:7084   */\n      gt\n        /* \"#utility.yul\":7051:7168   */\n      iszero\n      tag_233\n      jumpi\n        /* \"#utility.yul\":7087:7166   */\n      tag_234\n      tag_103\n      jump\t// in\n    tag_234:\n        /* \"#utility.yul\":7051:7168   */\n    tag_233:\n        /* \"#utility.yul\":7192:7255   */\n      tag_235\n        /* \"#utility.yul\":7247:7254   */\n      dup6\n        /* \"#utility.yul\":7238:7244   */\n      dup3\n        /* \"#utility.yul\":7227:7236   */\n      dup7\n        /* \"#utility.yul\":7223:7245   */\n      add\n        /* \"#utility.yul\":7192:7255   */\n      tag_126\n      jump\t// in\n    tag_235:\n        /* \"#utility.yul\":7182:7255   */\n      swap2\n      pop\n        /* \"#utility.yul\":6977:7265   */\n      pop\n        /* \"#utility.yul\":6438:7272   */\n      swap3\n      pop\n      swap3\n      swap1\n      pop\n      jump\t// out\n        /* \"#utility.yul\":7278:8043   */\n    tag_39:\n        /* \"#utility.yul\":7364:7370   */\n      0x00\n        /* \"#utility.yul\":7372:7378   */\n      dup1\n        /* \"#utility.yul\":7380:7386   */\n      0x00\n        /* \"#utility.yul\":7388:7394   */\n      dup1\n        /* \"#utility.yul\":7437:7440   */\n      0x80\n        /* \"#utility.yul\":7425:7434   */\n      dup6\n        /* \"#utility.yul\":7416:7423   */\n      dup8\n        /* \"#utility.yul\":7412:7435   */\n      sub\n        /* \"#utility.yul\":7408:7441   */\n      slt\n        /* \"#utility.yul\":7405:7525   */\n      iszero\n      tag_237\n      jumpi\n        /* \"#utility.yul\":7444:7523   */\n      tag_238\n      tag_102\n      jump\t// in\n    tag_238:\n        /* \"#utility.yul\":7405:7525   */\n    tag_237:\n        /* \"#utility.yul\":7564:7565   */\n      0x00\n        /* \"#utility.yul\":7589:7642   */\n      tag_239\n        /* \"#utility.yul\":7634:7641   */\n      dup8\n        /* \"#utility.yul\":7625:7631   */\n      dup3\n        /* \"#utility.yul\":7614:7623   */\n      dup9\n        /* \"#utility.yul\":7610:7632   */\n      add\n        /* \"#utility.yul\":7589:7642   */\n      tag_107\n      jump\t// in\n    tag_239:\n        /* \"#utility.yul\":7579:7642   */\n      swap5\n      pop\n        /* \"#utility.yul\":7535:7652   */\n      pop\n        /* \"#utility.yul\":7691:7693   */\n      0x20\n        /* \"#utility.yul\":7717:7770   */\n      tag_240\n        /* \"#utility.yul\":7762:7769   */\n      dup8\n        /* \"#utility.yul\":7753:7759   */\n      dup3\n        /* \"#utility.yul\":7742:7751   */\n      dup9\n        /* \"#utility.yul\":7738:7760   */\n      add\n        /* \"#utility.yul\":7717:7770   */\n      tag_107\n      jump\t// in\n    tag_240:\n        /* \"#utility.yul\":7707:7770   */\n      swap4\n      pop\n        /* \"#utility.yul\":7662:7780   */\n      pop\n        /* \"#utility.yul\":7819:7821   */\n      0x40\n        /* \"#utility.yul\":7845:7898   */\n      tag_241\n        /* \"#utility.yul\":7890:7897   */\n      dup8\n        /* \"#utility.yul\":7881:7887   */\n      dup3\n        /* \"#utility.yul\":7870:7879   */\n      dup9\n        /* \"#utility.yul\":7866:7888   */\n      add\n        /* \"#utility.yul\":7845:7898   */\n      tag_116\n      jump\t// in\n    tag_241:\n        /* \"#utility.yul\":7835:7898   */\n      swap3\n      pop\n        /* \"#utility.yul\":7790:7908   */\n      pop\n        /* \"#utility.yul\":7947:7949   */\n      0x60\n        /* \"#utility.yul\":7973:8026   */\n      tag_242\n        /* \"#utility.yul\":8018:8025   */\n      dup8\n        /* \"#utility.yul\":8009:8015   */\n      dup3\n        /* \"#utility.yul\":7998:8007   */\n      dup9\n        /* \"#utility.yul\":7994:8016   */\n      add\n        /* \"#utility.yul\":7973:8026   */\n      tag_116\n      jump\t// in\n    tag_242:\n        /* \"#utility.yul\":7963:8026   */\n      swap2\n      pop\n        /* \"#utility.yul\":7918:8036   */\n      pop\n        /* \"#utility.yul\":7278:8043   */\n      swap3\n      swap6\n      swap2\n      swap5\n      pop\n      swap3\n      pop\n      jump\t// out\n        /* \"#utility.yul\":8049:8229   */\n    tag_127:\n        /* \"#utility.yul\":8097:8174   */\n      0x4e487b7100000000000000000000000000000000000000000000000000000000\n        /* \"#utility.yul\":8094:8095   */\n      0x00\n        /* \"#utility.yul\":8087:8175   */\n      mstore\n        /* \"#utility.yul\":8194:8198   */\n      0x22\n        /* \"#utility.yul\":8191:8192   */\n      0x04\n        /* \"#utility.yul\":8184:8199   */\n      mstore\n        /* \"#utility.yul\":8218:8222   */\n      0x24\n        /* \"#utility.yul\":8215:8216   */\n      0x00\n        /* \"#utility.yul\":8208:8223   */\n      revert\n        /* \"#utility.yul\":8235:8555   */\n    tag_42:\n        /* \"#utility.yul\":8279:8285   */\n      0x00\n        /* \"#utility.yul\":8316:8317   */\n      0x02\n        /* \"#utility.yul\":8310:8314   */\n      dup3\n        /* \"#utility.yul\":8306:8318   */\n      div\n        /* \"#utility.yul\":8296:8318   */\n      swap1\n      pop\n        /* \"#utility.yul\":8363:8364   */\n      0x01\n        /* \"#utility.yul\":8357:8361   */\n      dup3\n        /* \"#utility.yul\":8353:8365   */\n      and\n        /* \"#utility.yul\":8384:8402   */\n      dup1\n        /* \"#utility.yul\":8374:8455   */\n      tag_245\n      jumpi\n        /* \"#utility.yul\":8440:8444   */\n      0x7f\n        /* \"#utility.yul\":8432:8438   */\n      dup3\n        /* \"#utility.yul\":8428:8445   */\n      and\n        /* \"#utility.yul\":8418:8445   */\n      swap2\n      pop\n        /* \"#utility.yul\":8374:8455   */\n    tag_245:\n        /* \"#utility.yul\":8502:8504   */\n      0x20\n        /* \"#utility.yul\":8494:8500   */\n      dup3\n        /* \"#utility.yul\":8491:8505   */\n      lt\n        /* \"#utility.yul\":8471:8489   */\n      dup2\n        /* \"#utility.yul\":8468:8506   */\n      sub\n        /* \"#utility.yul\":8465:8549   */\n      tag_246\n      jumpi\n        /* \"#utility.yul\":8521:8539   */\n      tag_247\n      tag_127\n      jump\t// in\n    tag_247:\n        /* \"#utility.yul\":8465:8549   */\n    tag_246:\n        /* \"#utility.yul\":8286:8555   */\n      pop\n        /* \"#utility.yul\":8235:8555   */\n      swap2\n      swap1\n      pop\n      jump\t// out\n        /* \"#utility.yul\":8561:8732   */\n    tag_128:\n        /* \"#utility.yul\":8701:8724   */\n      0x476563657273697a206b69726120656e64656b73690000000000000000000000\n        /* \"#utility.yul\":8697:8698   */\n      0x00\n        /* \"#utility.yul\":8689:8695   */\n      dup3\n        /* \"#utility.yul\":8685:8699   */\n      add\n        /* \"#utility.yul\":8678:8725   */\n      mstore\n        /* \"#utility.yul\":8561:8732   */\n      pop\n      jump\t// out\n        /* \"#utility.yul\":8738:9104   */\n    tag_129:\n        /* \"#utility.yul\":8880:8883   */\n      0x00\n        /* \"#utility.yul\":8901:8968   */\n      tag_250\n        /* \"#utility.yul\":8965:8967   */\n      0x15\n        /* \"#utility.yul\":8960:8963   */\n      dup4\n        /* \"#utility.yul\":8901:8968   */\n      tag_110\n      jump\t// in\n    tag_250:\n        /* \"#utility.yul\":8894:8968   */\n      swap2\n      pop\n        /* \"#utility.yul\":8977:9070   */\n      tag_251\n        /* \"#utility.yul\":9066:9069   */\n      dup3\n        /* \"#utility.yul\":8977:9070   */\n      tag_128\n      jump\t// in\n    tag_251:\n        /* \"#utility.yul\":9095:9097   */\n      0x20\n        /* \"#utility.yul\":9090:9093   */\n      dup3\n        /* \"#utility.yul\":9086:9098   */\n      add\n        /* \"#utility.yul\":9079:9098   */\n      swap1\n      pop\n        /* \"#utility.yul\":8738:9104   */\n      swap2\n      swap1\n      pop\n      jump\t// out\n        /* \"#utility.yul\":9110:9529   */\n    tag_57:\n        /* \"#utility.yul\":9276:9280   */\n      0x00\n        /* \"#utility.yul\":9314:9316   */\n      0x20\n        /* \"#utility.yul\":9303:9312   */\n      dup3\n        /* \"#utility.yul\":9299:9317   */\n      add\n        /* \"#utility.yul\":9291:9317   */\n      swap1\n      pop\n        /* \"#utility.yul\":9363:9372   */\n      dup2\n        /* \"#utility.yul\":9357:9361   */\n      dup2\n        /* \"#utility.yul\":9353:9373   */\n      sub\n        /* \"#utility.yul\":9349:9350   */\n      0x00\n        /* \"#utility.yul\":9338:9347   */\n      dup4\n        /* \"#utility.yul\":9334:9351   */\n      add\n        /* \"#utility.yul\":9327:9374   */\n      mstore\n        /* \"#utility.yul\":9391:9522   */\n      tag_253\n        /* \"#utility.yul\":9517:9521   */\n      dup2\n        /* \"#utility.yul\":9391:9522   */\n      tag_129\n      jump\t// in\n    tag_253:\n        /* \"#utility.yul\":9383:9522   */\n      swap1\n      pop\n        /* \"#utility.yul\":9110:9529   */\n      swap2\n      swap1\n      pop\n      jump\t// out\n        /* \"#utility.yul\":9535:9715   */\n    tag_60:\n        /* \"#utility.yul\":9583:9660   */\n      0x4e487b7100000000000000000000000000000000000000000000000000000000\n        /* \"#utility.yul\":9580:9581   */\n      0x00\n        /* \"#utility.yul\":9573:9661   */\n      mstore\n        /* \"#utility.yul\":9680:9684   */\n      0x32\n        /* \"#utility.yul\":9677:9678   */\n      0x04\n        /* \"#utility.yul\":9670:9685   */\n      mstore\n        /* \"#utility.yul\":9704:9708   */\n      0x24\n        /* \"#utility.yul\":9701:9702   */\n      0x00\n        /* \"#utility.yul\":9694:9709   */\n      revert\n        /* \"#utility.yul\":9721:9943   */\n    tag_130:\n        /* \"#utility.yul\":9861:9895   */\n      0x4275206b697261796920736f6e6c616e6469726d61207965746b696e697a2079\n        /* \"#utility.yul\":9857:9858   */\n      0x00\n        /* \"#utility.yul\":9849:9855   */\n      dup3\n        /* \"#utility.yul\":9845:9859   */\n      add\n        /* \"#utility.yul\":9838:9896   */\n      mstore\n        /* \"#utility.yul\":9930:9935   */\n      0x6f6b2e0000000000000000000000000000000000000000000000000000000000\n        /* \"#utility.yul\":9925:9927   */\n      0x20\n        /* \"#utility.yul\":9917:9923   */\n      dup3\n        /* \"#utility.yul\":9913:9928   */\n      add\n        /* \"#utility.yul\":9906:9936   */\n      mstore\n        /* \"#utility.yul\":9721:9943   */\n      pop\n      jump\t// out\n        /* \"#utility.yul\":9949:10315   */\n    tag_131:\n        /* \"#utility.yul\":10091:10094   */\n      0x00\n        /* \"#utility.yul\":10112:10179   */\n      tag_257\n        /* \"#utility.yul\":10176:10178   */\n      0x23\n        /* \"#utility.yul\":10171:10174   */\n      dup4\n        /* \"#utility.yul\":10112:10179   */\n      tag_110\n      jump\t// in\n    tag_257:\n        /* \"#utility.yul\":10105:10179   */\n      swap2\n      pop\n        /* \"#utility.yul\":10188:10281   */\n      tag_258\n        /* \"#utility.yul\":10277:10280   */\n      dup3\n        /* \"#utility.yul\":10188:10281   */\n      tag_130\n      jump\t// in\n    tag_258:\n        /* \"#utility.yul\":10306:10308   */\n      0x40\n        /* \"#utility.yul\":10301:10304   */\n      dup3\n        /* \"#utility.yul\":10297:10309   */\n      add\n        /* \"#utility.yul\":10290:10309   */\n      swap1\n      pop\n        /* \"#utility.yul\":9949:10315   */\n      swap2\n      swap1\n      pop\n      jump\t// out\n        /* \"#utility.yul\":10321:10740   */\n    tag_65:\n        /* \"#utility.yul\":10487:10491   */\n      0x00\n        /* \"#utility.yul\":10525:10527   */\n      0x20\n        /* \"#utility.yul\":10514:10523   */\n      dup3\n        /* \"#utility.yul\":10510:10528   */\n      add\n        /* \"#utility.yul\":10502:10528   */\n      swap1\n      pop\n        /* \"#utility.yul\":10574:10583   */\n      dup2\n        /* \"#utility.yul\":10568:10572   */\n      dup2\n        /* \"#utility.yul\":10564:10584   */\n      sub\n        /* \"#utility.yul\":10560:10561   */\n      0x00\n        /* \"#utility.yul\":10549:10558   */\n      dup4\n        /* \"#utility.yul\":10545:10562   */\n      add\n        /* \"#utility.yul\":10538:10585   */\n      mstore\n        /* \"#utility.yul\":10602:10733   */\n      tag_260\n        /* \"#utility.yul\":10728:10732   */\n      dup2\n        /* \"#utility.yul\":10602:10733   */\n      tag_131\n      jump\t// in\n    tag_260:\n        /* \"#utility.yul\":10594:10733   */\n      swap1\n      pop\n        /* \"#utility.yul\":10321:10740   */\n      swap2\n      swap1\n      pop\n      jump\t// out\n        /* \"#utility.yul\":10746:10887   */\n    tag_132:\n        /* \"#utility.yul\":10795:10799   */\n      0x00\n        /* \"#utility.yul\":10818:10821   */\n      dup2\n        /* \"#utility.yul\":10810:10821   */\n      swap1\n      pop\n        /* \"#utility.yul\":10841:10844   */\n      dup2\n        /* \"#utility.yul\":10838:10839   */\n      0x00\n        /* \"#utility.yul\":10831:10845   */\n      mstore\n        /* \"#utility.yul\":10875:10879   */\n      0x20\n        /* \"#utility.yul\":10872:10873   */\n      0x00\n        /* \"#utility.yul\":10862:10880   */\n      keccak256\n        /* \"#utility.yul\":10854:10880   */\n      swap1\n      pop\n        /* \"#utility.yul\":10746:10887   */\n      swap2\n      swap1\n      pop\n      jump\t// out\n        /* \"#utility.yul\":10893:10986   */\n    tag_133:\n        /* \"#utility.yul\":10930:10936   */\n      0x00\n        /* \"#utility.yul\":10977:10979   */\n      0x20\n        /* \"#utility.yul\":10972:10974   */\n      0x1f\n        /* \"#utility.yul\":10965:10970   */\n      dup4\n        /* \"#utility.yul\":10961:10975   */\n      add\n        /* \"#utility.yul\":10957:10980   */\n      div\n        /* \"#utility.yul\":10947:10980   */\n      swap1\n      pop\n        /* \"#utility.yul\":10893:10986   */\n      swap2\n      swap1\n      pop\n      jump\t// out\n        /* \"#utility.yul\":10992:11099   */\n    tag_134:\n        /* \"#utility.yul\":11036:11044   */\n      0x00\n        /* \"#utility.yul\":11086:11091   */\n      dup3\n        /* \"#utility.yul\":11080:11084   */\n      dup3\n        /* \"#utility.yul\":11076:11092   */\n      shl\n        /* \"#utility.yul\":11055:11092   */\n      swap1\n      pop\n        /* \"#utility.yul\":10992:11099   */\n      swap3\n      swap2\n      pop\n      pop\n      jump\t// out\n        /* \"#utility.yul\":11105:11498   */\n    tag_135:\n        /* \"#utility.yul\":11174:11180   */\n      0x00\n        /* \"#utility.yul\":11224:11225   */\n      0x08\n        /* \"#utility.yul\":11212:11222   */\n      dup4\n        /* \"#utility.yul\":11208:11226   */\n      mul\n        /* \"#utility.yul\":11247:11344   */\n      tag_265\n        /* \"#utility.yul\":11277:11343   */\n      0xffffffffffffffffffffffffffffffffffffffffffffffffffffffffffffffff\n        /* \"#utility.yul\":11266:11275   */\n      dup3\n        /* \"#utility.yul\":11247:11344   */\n      tag_134\n      jump\t// in\n    tag_265:\n        /* \"#utility.yul\":11365:11404   */\n      tag_266\n        /* \"#utility.yul\":11395:11403   */\n      dup7\n        /* \"#utility.yul\":11384:11393   */\n      dup4\n        /* \"#utility.yul\":11365:11404   */\n      tag_134\n      jump\t// in\n    tag_266:\n        /* \"#utility.yul\":11353:11404   */\n      swap6\n      pop\n        /* \"#utility.yul\":11437:11441   */\n      dup1\n        /* \"#utility.yul\":11433:11442   */\n      not\n        /* \"#utility.yul\":11426:11431   */\n      dup5\n        /* \"#utility.yul\":11422:11443   */\n      and\n        /* \"#utility.yul\":11413:11443   */\n      swap4\n      pop\n        /* \"#utility.yul\":11486:11490   */\n      dup1\n        /* \"#utility.yul\":11476:11484   */\n      dup7\n        /* \"#utility.yul\":11472:11491   */\n      and\n        /* \"#utility.yul\":11465:11470   */\n      dup5\n        /* \"#utility.yul\":11462:11492   */\n      or\n        /* \"#utility.yul\":11452:11492   */\n      swap3\n      pop\n        /* \"#utility.yul\":11181:11498   */\n      pop\n      pop\n        /* \"#utility.yul\":11105:11498   */\n      swap4\n      swap3\n      pop\n      pop\n      pop\n      jump\t// out\n        /* \"#utility.yul\":11504:11564   */\n    tag_136:\n        /* \"#utility.yul\":11532:11535   */\n      0x00\n        /* \"#utility.yul\":11553:11558   */\n      dup2\n        /* \"#utility.yul\":11546:11558   */\n      swap1\n      pop\n        /* \"#utility.yul\":11504:11564   */\n      swap2\n      swap1\n      pop\n      jump\t// out\n        /* \"#utility.yul\":11570:11712   */\n    tag_137:\n        /* \"#utility.yul\":11620:11629   */\n      0x00\n        /* \"#utility.yul\":11653:11706   */\n      tag_269\n        /* \"#utility.yul\":11671:11705   */\n      tag_270\n        /* \"#utility.yul\":11680:11704   */\n      tag_271\n        /* \"#utility.yul\":11698:11703   */\n      dup5\n        /* \"#utility.yul\":11680:11704   */\n      tag_114\n      jump\t// in\n    tag_271:\n        /* \"#utility.yul\":11671:11705   */\n      tag_136\n      jump\t// in\n    tag_270:\n        /* \"#utility.yul\":11653:11706   */\n      tag_114\n      jump\t// in\n    tag_269:\n        /* \"#utility.yul\":11640:11706   */\n      swap1\n      pop\n        /* \"#utility.yul\":11570:11712   */\n      swap2\n      swap1\n      pop\n      jump\t// out\n        /* \"#utility.yul\":11718:11793   */\n    tag_138:\n        /* \"#utility.yul\":11761:11764   */\n      0x00\n        /* \"#utility.yul\":11782:11787   */\n      dup2\n        /* \"#utility.yul\":11775:11787   */\n      swap1\n      pop\n        /* \"#utility.yul\":11718:11793   */\n      swap2\n      swap1\n      pop\n      jump\t// out\n        /* \"#utility.yul\":11799:12068   */\n    tag_139:\n        /* \"#utility.yul\":11909:11948   */\n      tag_274\n        /* \"#utility.yul\":11940:11947   */\n      dup4\n        /* \"#utility.yul\":11909:11948   */\n      tag_137\n      jump\t// in\n    tag_274:\n        /* \"#utility.yul\":11970:12061   */\n      tag_275\n        /* \"#utility.yul\":12019:12060   */\n      tag_276\n        /* \"#utility.yul\":12043:12059   */\n      dup3\n        /* \"#utility.yul\":12019:12060   */\n      tag_138\n      jump\t// in\n    tag_276:\n        /* \"#utility.yul\":12011:12017   */\n      dup5\n        /* \"#utility.yul\":12004:12008   */\n      dup5\n        /* \"#utility.yul\":11998:12009   */\n      sload\n        /* \"#utility.yul\":11970:12061   */\n      tag_135\n      jump\t// in\n    tag_275:\n        /* \"#utility.yul\":11964:11968   */\n      dup3\n        /* \"#utility.yul\":11957:12062   */\n      sstore\n        /* \"#utility.yul\":11875:12068   */\n      pop\n        /* \"#utility.yul\":11799:12068   */\n      pop\n      pop\n      pop\n      jump\t// out\n        /* \"#utility.yul\":12074:12147   */\n    tag_140:\n        /* \"#utility.yul\":12119:12122   */\n      0x00\n        /* \"#utility.yul\":12074:12147   */\n      swap1\n      jump\t// out\n        /* \"#utility.yul\":12153:12342   */\n    tag_141:\n        /* \"#utility.yul\":12230:12262   */\n      tag_279\n      tag_140\n      jump\t// in\n    tag_279:\n        /* \"#utility.yul\":12271:12336   */\n      tag_280\n        /* \"#utility.yul\":12329:12335   */\n      dup2\n        /* \"#utility.yul\":12321:12327   */\n      dup5\n        /* \"#utility.yul\":12315:12319   */\n      dup5\n        /* \"#utility.yul\":12271:12336   */\n      tag_139\n      jump\t// in\n    tag_280:\n        /* \"#utility.yul\":12206:12342   */\n      pop\n        /* \"#utility.yul\":12153:12342   */\n      pop\n      pop\n      jump\t// out\n        /* \"#utility.yul\":12348:12534   */\n    tag_142:\n        /* \"#utility.yul\":12408:12528   */\n    tag_282:\n        /* \"#utility.yul\":12425:12428   */\n      dup2\n        /* \"#utility.yul\":12418:12423   */\n      dup2\n        /* \"#utility.yul\":12415:12429   */\n      lt\n        /* \"#utility.yul\":12408:12528   */\n      iszero\n      tag_284\n      jumpi\n        /* \"#utility.yul\":12479:12518   */\n      tag_285\n        /* \"#utility.yul\":12516:12517   */\n      0x00\n        /* \"#utility.yul\":12509:12514   */\n      dup3\n        /* \"#utility.yul\":12479:12518   */\n      tag_141\n      jump\t// in\n    tag_285:\n        /* \"#utility.yul\":12452:12453   */\n      0x01\n        /* \"#utility.yul\":12445:12450   */\n      dup2\n        /* \"#utility.yul\":12441:12454   */\n      add\n        /* \"#utility.yul\":12432:12454   */\n      swap1\n      pop\n        /* \"#utility.yul\":12408:12528   */\n      jump(tag_282)\n    tag_284:\n        /* \"#utility.yul\":12348:12534   */\n      pop\n      pop\n      jump\t// out\n        /* \"#utility.yul\":12540:13083   */\n    tag_143:\n        /* \"#utility.yul\":12641:12643   */\n      0x1f\n        /* \"#utility.yul\":12636:12639   */\n      dup3\n        /* \"#utility.yul\":12633:12644   */\n      gt\n        /* \"#utility.yul\":12630:13076   */\n      iszero\n      tag_287\n      jumpi\n        /* \"#utility.yul\":12675:12713   */\n      tag_288\n        /* \"#utility.yul\":12707:12712   */\n      dup2\n        /* \"#utility.yul\":12675:12713   */\n      tag_132\n      jump\t// in\n    tag_288:\n        /* \"#utility.yul\":12759:12788   */\n      tag_289\n        /* \"#utility.yul\":12777:12787   */\n      dup5\n        /* \"#utility.yul\":12759:12788   */\n      tag_133\n      jump\t// in\n    tag_289:\n        /* \"#utility.yul\":12749:12757   */\n      dup2\n        /* \"#utility.yul\":12745:12789   */\n      add\n        /* \"#utility.yul\":12942:12944   */\n      0x20\n        /* \"#utility.yul\":12930:12940   */\n      dup6\n        /* \"#utility.yul\":12927:12945   */\n      lt\n        /* \"#utility.yul\":12924:12973   */\n      iszero\n      tag_290\n      jumpi\n        /* \"#utility.yul\":12963:12971   */\n      dup2\n        /* \"#utility.yul\":12948:12971   */\n      swap1\n      pop\n        /* \"#utility.yul\":12924:12973   */\n    tag_290:\n        /* \"#utility.yul\":12986:13066   */\n      tag_291\n        /* \"#utility.yul\":13042:13064   */\n      tag_292\n        /* \"#utility.yul\":13060:13063   */\n      dup6\n        /* \"#utility.yul\":13042:13064   */\n      tag_133\n      jump\t// in\n    tag_292:\n        /* \"#utility.yul\":13032:13040   */\n      dup4\n        /* \"#utility.yul\":13028:13065   */\n      add\n        /* \"#utility.yul\":13015:13026   */\n      dup3\n        /* \"#utility.yul\":12986:13066   */\n      tag_142\n      jump\t// in\n    tag_291:\n        /* \"#utility.yul\":12645:13076   */\n      pop\n      pop\n        /* \"#utility.yul\":12630:13076   */\n    tag_287:\n        /* \"#utility.yul\":12540:13083   */\n      pop\n      pop\n      pop\n      jump\t// out\n        /* \"#utility.yul\":13089:13206   */\n    tag_144:\n        /* \"#utility.yul\":13143:13151   */\n      0x00\n        /* \"#utility.yul\":13193:13198   */\n      dup3\n        /* \"#utility.yul\":13187:13191   */\n      dup3\n        /* \"#utility.yul\":13183:13199   */\n      shr\n        /* \"#utility.yul\":13162:13199   */\n      swap1\n      pop\n        /* \"#utility.yul\":13089:13206   */\n      swap3\n      swap2\n      pop\n      pop\n      jump\t// out\n        /* \"#utility.yul\":13212:13381   */\n    tag_145:\n        /* \"#utility.yul\":13256:13262   */\n      0x00\n        /* \"#utility.yul\":13289:13340   */\n      tag_295\n        /* \"#utility.yul\":13337:13338   */\n      0x00\n        /* \"#utility.yul\":13333:13339   */\n      not\n        /* \"#utility.yul\":13325:13330   */\n      dup5\n        /* \"#utility.yul\":13322:13323   */\n      0x08\n        /* \"#utility.yul\":13318:13331   */\n      mul\n        /* \"#utility.yul\":13289:13340   */\n      tag_144\n      jump\t// in\n    tag_295:\n        /* \"#utility.yul\":13285:13341   */\n      not\n        /* \"#utility.yul\":13370:13374   */\n      dup1\n        /* \"#utility.yul\":13364:13368   */\n      dup4\n        /* \"#utility.yul\":13360:13375   */\n      and\n        /* \"#utility.yul\":13350:13375   */\n      swap2\n      pop\n        /* \"#utility.yul\":13263:13381   */\n      pop\n        /* \"#utility.yul\":13212:13381   */\n      swap3\n      swap2\n      pop\n      pop\n      jump\t// out\n        /* \"#utility.yul\":13386:13681   */\n    tag_146:\n        /* \"#utility.yul\":13462:13466   */\n      0x00\n        /* \"#utility.yul\":13608:13637   */\n      tag_297\n        /* \"#utility.yul\":13633:13636   */\n      dup4\n        /* \"#utility.yul\":13627:13631   */\n      dup4\n        /* \"#utility.yul\":13608:13637   */\n      tag_145\n      jump\t// in\n    tag_297:\n        /* \"#utility.yul\":13600:13637   */\n      swap2\n      pop\n        /* \"#utility.yul\":13670:13673   */\n      dup3\n        /* \"#utility.yul\":13667:13668   */\n      0x02\n        /* \"#utility.yul\":13663:13674   */\n      mul\n        /* \"#utility.yul\":13657:13661   */\n      dup3\n        /* \"#utility.yul\":13654:13675   */\n      or\n        /* \"#utility.yul\":13646:13675   */\n      swap1\n      pop\n        /* \"#utility.yul\":13386:13681   */\n      swap3\n      swap2\n      pop\n      pop\n      jump\t// out\n        /* \"#utility.yul\":13686:15081   */\n    tag_71:\n        /* \"#utility.yul\":13803:13840   */\n      tag_299\n        /* \"#utility.yul\":13836:13839   */\n      dup3\n        /* \"#utility.yul\":13803:13840   */\n      tag_109\n      jump\t// in\n    tag_299:\n        /* \"#utility.yul\":13905:13923   */\n      0xffffffffffffffff\n        /* \"#utility.yul\":13897:13903   */\n      dup2\n        /* \"#utility.yul\":13894:13924   */\n      gt\n        /* \"#utility.yul\":13891:13947   */\n      iszero\n      tag_300\n      jumpi\n        /* \"#utility.yul\":13927:13945   */\n      tag_301\n      tag_120\n      jump\t// in\n    tag_301:\n        /* \"#utility.yul\":13891:13947   */\n    tag_300:\n        /* \"#utility.yul\":13971:14009   */\n      tag_302\n        /* \"#utility.yul\":14003:14007   */\n      dup3\n        /* \"#utility.yul\":13997:14008   */\n      sload\n        /* \"#utility.yul\":13971:14009   */\n      tag_42\n      jump\t// in\n    tag_302:\n        /* \"#utility.yul\":14056:14123   */\n      tag_303\n        /* \"#utility.yul\":14116:14122   */\n      dup3\n        /* \"#utility.yul\":14108:14114   */\n      dup3\n        /* \"#utility.yul\":14102:14106   */\n      dup6\n        /* \"#utility.yul\":14056:14123   */\n      tag_143\n      jump\t// in\n    tag_303:\n        /* \"#utility.yul\":14150:14151   */\n      0x00\n        /* \"#utility.yul\":14174:14178   */\n      0x20\n        /* \"#utility.yul\":14161:14178   */\n      swap1\n      pop\n        /* \"#utility.yul\":14206:14208   */\n      0x1f\n        /* \"#utility.yul\":14198:14204   */\n      dup4\n        /* \"#utility.yul\":14195:14209   */\n      gt\n        /* \"#utility.yul\":14223:14224   */\n      0x01\n        /* \"#utility.yul\":14218:14836   */\n      dup2\n      eq\n      tag_305\n      jumpi\n        /* \"#utility.yul\":14880:14881   */\n      0x00\n        /* \"#utility.yul\":14897:14903   */\n      dup5\n        /* \"#utility.yul\":14894:14971   */\n      iszero\n      tag_306\n      jumpi\n        /* \"#utility.yul\":14946:14955   */\n      dup3\n        /* \"#utility.yul\":14941:14944   */\n      dup8\n        /* \"#utility.yul\":14937:14956   */\n      add\n        /* \"#utility.yul\":14931:14957   */\n      mload\n        /* \"#utility.yul\":14922:14957   */\n      swap1\n      pop\n        /* \"#utility.yul\":14894:14971   */\n    tag_306:\n        /* \"#utility.yul\":14997:15064   */\n      tag_307\n        /* \"#utility.yul\":15057:15063   */\n      dup6\n        /* \"#utility.yul\":15050:15055   */\n      dup3\n        /* \"#utility.yul\":14997:15064   */\n      tag_146\n      jump\t// in\n    tag_307:\n        /* \"#utility.yul\":14991:14995   */\n      dup7\n        /* \"#utility.yul\":14984:15065   */\n      sstore\n        /* \"#utility.yul\":14853:15075   */\n      pop\n        /* \"#utility.yul\":14188:15075   */\n      jump(tag_304)\n        /* \"#utility.yul\":14218:14836   */\n    tag_305:\n        /* \"#utility.yul\":14270:14274   */\n      0x1f\n        /* \"#utility.yul\":14266:14275   */\n      not\n        /* \"#utility.yul\":14258:14264   */\n      dup5\n        /* \"#utility.yul\":14254:14276   */\n      and\n        /* \"#utility.yul\":14304:14341   */\n      tag_308\n        /* \"#utility.yul\":14336:14340   */\n      dup7\n        /* \"#utility.yul\":14304:14341   */\n      tag_132\n      jump\t// in\n    tag_308:\n        /* \"#utility.yul\":14363:14364   */\n      0x00\n        /* \"#utility.yul\":14377:14585   */\n    tag_309:\n        /* \"#utility.yul\":14391:14398   */\n      dup3\n        /* \"#utility.yul\":14388:14389   */\n      dup2\n        /* \"#utility.yul\":14385:14399   */\n      lt\n        /* \"#utility.yul\":14377:14585   */\n      iszero\n      tag_311\n      jumpi\n        /* \"#utility.yul\":14470:14479   */\n      dup5\n        /* \"#utility.yul\":14465:14468   */\n      dup10\n        /* \"#utility.yul\":14461:14480   */\n      add\n        /* \"#utility.yul\":14455:14481   */\n      mload\n        /* \"#utility.yul\":14447:14453   */\n      dup3\n        /* \"#utility.yul\":14440:14482   */\n      sstore\n        /* \"#utility.yul\":14521:14522   */\n      0x01\n        /* \"#utility.yul\":14513:14519   */\n      dup3\n        /* \"#utility.yul\":14509:14523   */\n      add\n        /* \"#utility.yul\":14499:14523   */\n      swap2\n      pop\n        /* \"#utility.yul\":14568:14570   */\n      0x20\n        /* \"#utility.yul\":14557:14566   */\n      dup6\n        /* \"#utility.yul\":14553:14571   */\n      add\n        /* \"#utility.yul\":14540:14571   */\n      swap5\n      pop\n        /* \"#utility.yul\":14414:14418   */\n      0x20\n        /* \"#utility.yul\":14411:14412   */\n      dup2\n        /* \"#utility.yul\":14407:14419   */\n      add\n        /* \"#utility.yul\":14402:14419   */\n      swap1\n      pop\n        /* \"#utility.yul\":14377:14585   */\n      jump(tag_309)\n    tag_311:\n        /* \"#utility.yul\":14613:14619   */\n      dup7\n        /* \"#utility.yul\":14604:14611   */\n      dup4\n        /* \"#utility.yul\":14601:14620   */\n      lt\n        /* \"#utility.yul\":14598:14777   */\n      iszero\n      tag_312\n      jumpi\n        /* \"#utility.yul\":14671:14680   */\n      dup5\n        /* \"#utility.yul\":14666:14669   */\n      dup10\n        /* \"#utility.yul\":14662:14681   */\n      add\n        /* \"#utility.yul\":14656:14682   */\n      mload\n        /* \"#utility.yul\":14714:14762   */\n      tag_313\n        /* \"#utility.yul\":14756:14760   */\n      0x1f\n        /* \"#utility.yul\":14748:14754   */\n      dup10\n        /* \"#utility.yul\":14744:14761   */\n      and\n        /* \"#utility.yul\":14733:14742   */\n      dup3\n        /* \"#utility.yul\":14714:14762   */\n      tag_145\n      jump\t// in\n    tag_313:\n        /* \"#utility.yul\":14706:14712   */\n      dup4\n        /* \"#utility.yul\":14699:14763   */\n      sstore\n        /* \"#utility.yul\":14621:14777   */\n      pop\n        /* \"#utility.yul\":14598:14777   */\n    tag_312:\n        /* \"#utility.yul\":14823:14824   */\n      0x01\n        /* \"#utility.yul\":14819:14820   */\n      0x02\n        /* \"#utility.yul\":14811:14817   */\n      dup9\n        /* \"#utility.yul\":14807:14821   */\n      mul\n        /* \"#utility.yul\":14803:14825   */\n      add\n        /* \"#utility.yul\":14797:14801   */\n      dup9\n        /* \"#utility.yul\":14790:14826   */\n      sstore\n        /* \"#utility.yul\":14225:14836   */\n      pop\n      pop\n      pop\n        /* \"#utility.yul\":14188:15075   */\n    tag_304:\n      pop\n        /* \"#utility.yul\":13778:15081   */\n      pop\n      pop\n      pop\n        /* \"#utility.yul\":13686:15081   */\n      pop\n      pop\n      jump\t// out\n        /* \"#utility.yul\":15087:15400   */\n    tag_74:\n        /* \"#utility.yul\":15200:15204   */\n      0x00\n        /* \"#utility.yul\":15238:15240   */\n      0x20\n        /* \"#utility.yul\":15227:15236   */\n      dup3\n        /* \"#utility.yul\":15223:15241   */\n      add\n        /* \"#utility.yul\":15215:15241   */\n      swap1\n      pop\n        /* \"#utility.yul\":15287:15296   */\n      dup2\n        /* \"#utility.yul\":15281:15285   */\n      dup2\n        /* \"#utility.yul\":15277:15297   */\n      sub\n        /* \"#utility.yul\":15273:15274   */\n      0x00\n        /* \"#utility.yul\":15262:15271   */\n      dup4\n        /* \"#utility.yul\":15258:15275   */\n      add\n        /* \"#utility.yul\":15251:15298   */\n      mstore\n        /* \"#utility.yul\":15315:15393   */\n      tag_315\n        /* \"#utility.yul\":15388:15392   */\n      dup2\n        /* \"#utility.yul\":15379:15385   */\n      dup5\n        /* \"#utility.yul\":15315:15393   */\n      tag_113\n      jump\t// in\n    tag_315:\n        /* \"#utility.yul\":15307:15393   */\n      swap1\n      pop\n        /* \"#utility.yul\":15087:15400   */\n      swap3\n      swap2\n      pop\n      pop\n      jump\t// out\n        /* \"#utility.yul\":15406:15573   */\n    tag_147:\n        /* \"#utility.yul\":15546:15565   */\n      0x4b697261636920646567696c73696e697a000000000000000000000000000000\n        /* \"#utility.yul\":15542:15543   */\n      0x00\n        /* \"#utility.yul\":15534:15540   */\n      dup3\n        /* \"#utility.yul\":15530:15544   */\n      add\n        /* \"#utility.yul\":15523:15566   */\n      mstore\n        /* \"#utility.yul\":15406:15573   */\n      pop\n      jump\t// out\n        /* \"#utility.yul\":15579:15945   */\n    tag_148:\n        /* \"#utility.yul\":15721:15724   */\n      0x00\n        /* \"#utility.yul\":15742:15809   */\n      tag_318\n        /* \"#utility.yul\":15806:15808   */\n      0x11\n        /* \"#utility.yul\":15801:15804   */\n      dup4\n        /* \"#utility.yul\":15742:15809   */\n      tag_110\n      jump\t// in\n    tag_318:\n        /* \"#utility.yul\":15735:15809   */\n      swap2\n      pop\n        /* \"#utility.yul\":15818:15911   */\n      tag_319\n        /* \"#utility.yul\":15907:15910   */\n      dup3\n        /* \"#utility.yul\":15818:15911   */\n      tag_147\n      jump\t// in\n    tag_319:\n        /* \"#utility.yul\":15936:15938   */\n      0x20\n        /* \"#utility.yul\":15931:15934   */\n      dup3\n        /* \"#utility.yul\":15927:15939   */\n      add\n        /* \"#utility.yul\":15920:15939   */\n      swap1\n      pop\n        /* \"#utility.yul\":15579:15945   */\n      swap2\n      swap1\n      pop\n      jump\t// out\n        /* \"#utility.yul\":15951:16370   */\n    tag_92:\n        /* \"#utility.yul\":16117:16121   */\n      0x00\n        /* \"#utility.yul\":16155:16157   */\n      0x20\n        /* \"#utility.yul\":16144:16153   */\n      dup3\n        /* \"#utility.yul\":16140:16158   */\n      add\n        /* \"#utility.yul\":16132:16158   */\n      swap1\n      pop\n        /* \"#utility.yul\":16204:16213   */\n      dup2\n        /* \"#utility.yul\":16198:16202   */\n      dup2\n        /* \"#utility.yul\":16194:16214   */\n      sub\n        /* \"#utility.yul\":16190:16191   */\n      0x00\n        /* \"#utility.yul\":16179:16188   */\n      dup4\n        /* \"#utility.yul\":16175:16192   */\n      add\n        /* \"#utility.yul\":16168:16215   */\n      mstore\n        /* \"#utility.yul\":16232:16363   */\n      tag_321\n        /* \"#utility.yul\":16358:16362   */\n      dup2\n        /* \"#utility.yul\":16232:16363   */\n      tag_148\n      jump\t// in\n    tag_321:\n        /* \"#utility.yul\":16224:16363   */\n      swap1\n      pop\n        /* \"#utility.yul\":15951:16370   */\n      swap2\n      swap1\n      pop\n      jump\t// out\n        /* \"#utility.yul\":16376:16549   */\n    tag_149:\n        /* \"#utility.yul\":16516:16541   */\n      0x4d756c6b2073616869626920646567696c73696e697a2e000000000000000000\n        /* \"#utility.yul\":16512:16513   */\n      0x00\n        /* \"#utility.yul\":16504:16510   */\n      dup3\n        /* \"#utility.yul\":16500:16514   */\n      add\n        /* \"#utility.yul\":16493:16542   */\n      mstore\n        /* \"#utility.yul\":16376:16549   */\n      pop\n      jump\t// out\n        /* \"#utility.yul\":16555:16921   */\n    tag_150:\n        /* \"#utility.yul\":16697:16700   */\n      0x00\n        /* \"#utility.yul\":16718:16785   */\n      tag_324\n        /* \"#utility.yul\":16782:16784   */\n      0x17\n        /* \"#utility.yul\":16777:16780   */\n      dup4\n        /* \"#utility.yul\":16718:16785   */\n      tag_110\n      jump\t// in\n    tag_324:\n        /* \"#utility.yul\":16711:16785   */\n      swap2\n      pop\n        /* \"#utility.yul\":16794:16887   */\n      tag_325\n        /* \"#utility.yul\":16883:16886   */\n      dup3\n        /* \"#utility.yul\":16794:16887   */\n      tag_149\n      jump\t// in\n    tag_325:\n        /* \"#utility.yul\":16912:16914   */\n      0x20\n        /* \"#utility.yul\":16907:16910   */\n      dup3\n        /* \"#utility.yul\":16903:16915   */\n      add\n        /* \"#utility.yul\":16896:16915   */\n      swap1\n      pop\n        /* \"#utility.yul\":16555:16921   */\n      swap2\n      swap1\n      pop\n      jump\t// out\n        /* \"#utility.yul\":16927:17346   */\n    tag_96:\n        /* \"#utility.yul\":17093:17097   */\n      0x00\n        /* \"#utility.yul\":17131:17133   */\n      0x20\n        /* \"#utility.yul\":17120:17129   */\n      dup3\n        /* \"#utility.yul\":17116:17134   */\n      add\n        /* \"#utility.yul\":17108:17134   */\n      swap1\n      pop\n        /* \"#utility.yul\":17180:17189   */\n      dup2\n        /* \"#utility.yul\":17174:17178   */\n      dup2\n        /* \"#utility.yul\":17170:17190   */\n      sub\n        /* \"#utility.yul\":17166:17167   */\n      0x00\n        /* \"#utility.yul\":17155:17164   */\n      dup4\n        /* \"#utility.yul\":17151:17168   */\n      add\n        /* \"#utility.yul\":17144:17191   */\n      mstore\n        /* \"#utility.yul\":17208:17339   */\n      tag_327\n        /* \"#utility.yul\":17334:17338   */\n      dup2\n        /* \"#utility.yul\":17208:17339   */\n      tag_150\n      jump\t// in\n    tag_327:\n        /* \"#utility.yul\":17200:17339   */\n      swap1\n      pop\n        /* \"#utility.yul\":16927:17346   */\n      swap2\n      swap1\n      pop\n      jump\t// out\n        /* \"#utility.yul\":17352:17684   */\n    tag_100:\n        /* \"#utility.yul\":17473:17477   */\n      0x00\n        /* \"#utility.yul\":17511:17513   */\n      0x40\n        /* \"#utility.yul\":17500:17509   */\n      dup3\n        /* \"#utility.yul\":17496:17514   */\n      add\n        /* \"#utility.yul\":17488:17514   */\n      swap1\n      pop\n        /* \"#utility.yul\":17524:17595   */\n      tag_329\n        /* \"#utility.yul\":17592:17593   */\n      0x00\n        /* \"#utility.yul\":17581:17590   */\n      dup4\n        /* \"#utility.yul\":17577:17594   */\n      add\n        /* \"#utility.yul\":17568:17574   */\n      dup6\n        /* \"#utility.yul\":17524:17595   */\n      tag_117\n      jump\t// in\n    tag_329:\n        /* \"#utility.yul\":17605:17677   */\n      tag_330\n        /* \"#utility.yul\":17673:17675   */\n      0x20\n        /* \"#utility.yul\":17662:17671   */\n      dup4\n        /* \"#utility.yul\":17658:17676   */\n      add\n        /* \"#utility.yul\":17649:17655   */\n      dup5\n        /* \"#utility.yul\":17605:17677   */\n      tag_117\n      jump\t// in\n    tag_330:\n        /* \"#utility.yul\":17352:17684   */\n      swap4\n      swap3\n      pop\n      pop\n      pop\n      jump\t// out\n\n    auxdata: 0xa2646970667358221220c7ff93f60d4ea90e0badb22f379a8c5fe75c3be7831b5a9a5bd988d0c5b4b6cf64736f6c63430008120033\n}\n",
				"bytecode": {
					"linkReferences": {},
					"object": "608060405234801561001057600080fd5b5061168d806100206000396000f3fe608060405234801561001057600080fd5b506004361061007d5760003560e01c806378cf3fe41161005b57806378cf3fe414610103578063ca399c391461011f578063d9dbf11f1461013b578063ff9599c01461016d5761007d565b80631706d4a514610082578063539a9914146100b4578063655c127f146100e7575b600080fd5b61009c60048036038101906100979190610d4d565b610189565b6040516100ab93929190610e19565b60405180910390f35b6100ce60048036038101906100c99190610e94565b6102e3565b6040516100de9493929190610ed0565b60405180910390f35b61010160048036038101906100fc9190610e94565b610363565b005b61011d6004803603810190610118919061104a565b610647565b005b6101396004803603810190610134919061104a565b61077f565b005b61015560048036038101906101509190610d4d565b6108b6565b60405161016493929190610e19565b60405180910390f35b610187600480360381019061018291906110c2565b610a10565b005b60006020528060005260406000206000915090508060000160009054906101000a900473ffffffffffffffffffffffffffffffffffffffff16908060010180546101d290611158565b80601f01602080910402602001604051908101604052809291908181526020018280546101fe90611158565b801561024b5780601f106102205761010080835404028352916020019161024b565b820191906000526020600020905b81548152906001019060200180831161022e57829003601f168201915b50505050509080600201805461026090611158565b80601f016020809104026020016040519081016040528092919081815260200182805461028c90611158565b80156102d95780601f106102ae576101008083540402835291602001916102d9565b820191906000526020600020905b8154815290600101906020018083116102bc57829003601f168201915b5050505050905083565b600281815481106102f357600080fd5b90600052602060002090600402016000915090508060000160009054906101000a900473ffffffffffffffffffffffffffffffffffffffff16908060010160009054906101000a900473ffffffffffffffffffffffffffffffffffffffff16908060020154908060030154905084565b60028054905081106103aa576040517f08c379a00000000000000000000000000000000000000000000000000000000081526004016103a1906111d5565b60405180910390fd5b6000600282815481106103c0576103bf6111f5565b5b906000526020600020906004020190508060000160009054906101000a900473ffffffffffffffffffffffffffffffffffffffff1673ffffffffffffffffffffffffffffffffffffffff163373ffffffffffffffffffffffffffffffffffffffff1614806104df5750600160008260010160009054906101000a900473ffffffffffffffffffffffffffffffffffffffff1673ffffffffffffffffffffffffffffffffffffffff1673ffffffffffffffffffffffffffffffffffffffff16815260200190815260200160002060000160009054906101000a900473ffffffffffffffffffffffffffffffffffffffff1673ffffffffffffffffffffffffffffffffffffffff163373ffffffffffffffffffffffffffffffffffffffff16145b61051e576040517f08c379a000000000000000000000000000000000000000000000000000000000815260040161051590611296565b60405180910390fd5b60028281548110610532576105316111f5565b5b9060005260206000209060040201600080820160006101000a81549073ffffffffffffffffffffffffffffffffffffffff02191690556001820160006101000a81549073ffffffffffffffffffffffffffffffffffffffff02191690556002820160009055600382016000905550508060010160009054906101000a900473ffffffffffffffffffffffffffffffffffffffff1673ffffffffffffffffffffffffffffffffffffffff168160000160009054906101000a900473ffffffffffffffffffffffffffffffffffffffff1673ffffffffffffffffffffffffffffffffffffffff167f019c3ab800dd161d024ea5550fa205c593558278bd1d9e262582727de874432260405160405180910390a35050565b60405180606001604052803373ffffffffffffffffffffffffffffffffffffffff16815260200183815260200182815250600160003373ffffffffffffffffffffffffffffffffffffffff1673ffffffffffffffffffffffffffffffffffffffff16815260200190815260200160002060008201518160000160006101000a81548173ffffffffffffffffffffffffffffffffffffffff021916908373ffffffffffffffffffffffffffffffffffffffff16021790555060208201518160010190816107139190611462565b5060408201518160020190816107299190611462565b509050503373ffffffffffffffffffffffffffffffffffffffff167f95e79f8a3098e92716e1774be1dd5ee3683bedcb88da7996122f3bb4d52b108c836040516107739190611534565b60405180910390a25050565b60405180606001604052803373ffffffffffffffffffffffffffffffffffffffff168152602001838152602001828152506000803373ffffffffffffffffffffffffffffffffffffffff1673ffffffffffffffffffffffffffffffffffffffff16815260200190815260200160002060008201518160000160006101000a81548173ffffffffffffffffffffffffffffffffffffffff021916908373ffffffffffffffffffffffffffffffffffffffff160217905550602082015181600101908161084a9190611462565b5060408201518160020190816108609190611462565b509050503373ffffffffffffffffffffffffffffffffffffffff167f5ece79a81f7cad89be3ec74311522c64ef780984a1101d5f5d73b7490907336e836040516108aa9190611534565b60405180910390a25050565b60016020528060005260406000206000915090508060000160009054906101000a900473ffffffffffffffffffffffffffffffffffffffff16908060010180546108ff90611158565b80601f016020809104026020016040519081016040528092919081815260200182805461092b90611158565b80156109785780601f1061094d57610100808354040283529160200191610978565b820191906000526020600020905b81548152906001019060200180831161095b57829003601f168201915b50505050509080600201805461098d90611158565b80601f01602080910402602001604051908101604052809291908181526020018280546109b990611158565b8015610a065780601f106109db57610100808354040283529160200191610a06565b820191906000526020600020905b8154815290600101906020018083116109e957829003601f168201915b5050505050905083565b838073ffffffffffffffffffffffffffffffffffffffff163373ffffffffffffffffffffffffffffffffffffffff1614610a7f576040517f08c379a0000000000000000000000000000000000000000000000000000000008152600401610a76906115a2565b60405180910390fd5b83600160008273ffffffffffffffffffffffffffffffffffffffff1673ffffffffffffffffffffffffffffffffffffffff16815260200190815260200160002060000160009054906101000a900473ffffffffffffffffffffffffffffffffffffffff1673ffffffffffffffffffffffffffffffffffffffff163373ffffffffffffffffffffffffffffffffffffffff1614610b50576040517f08c379a0000000000000000000000000000000000000000000000000000000008152600401610b479061160e565b60405180910390fd5b600260405180608001604052808873ffffffffffffffffffffffffffffffffffffffff1681526020018773ffffffffffffffffffffffffffffffffffffffff16815260200186815260200185815250908060018154018082558091505060019003906000526020600020906004020160009091909190915060008201518160000160006101000a81548173ffffffffffffffffffffffffffffffffffffffff021916908373ffffffffffffffffffffffffffffffffffffffff16021790555060208201518160010160006101000a81548173ffffffffffffffffffffffffffffffffffffffff021916908373ffffffffffffffffffffffffffffffffffffffff160217905550604082015181600201556060820151816003015550508473ffffffffffffffffffffffffffffffffffffffff168673ffffffffffffffffffffffffffffffffffffffff167f33ae89b2197ce5b87feec8152ea1c832d55bf86efafbb866f723ff2f558da8938686604051610ccb92919061162e565b60405180910390a3505050505050565b6000604051905090565b600080fd5b600080fd5b600073ffffffffffffffffffffffffffffffffffffffff82169050919050565b6000610d1a82610cef565b9050919050565b610d2a81610d0f565b8114610d3557600080fd5b50565b600081359050610d4781610d21565b92915050565b600060208284031215610d6357610d62610ce5565b5b6000610d7184828501610d38565b91505092915050565b610d8381610d0f565b82525050565b600081519050919050565b600082825260208201905092915050565b60005b83811015610dc3578082015181840152602081019050610da8565b60008484015250505050565b6000601f19601f8301169050919050565b6000610deb82610d89565b610df58185610d94565b9350610e05818560208601610da5565b610e0e81610dcf565b840191505092915050565b6000606082019050610e2e6000830186610d7a565b8181036020830152610e408185610de0565b90508181036040830152610e548184610de0565b9050949350505050565b6000819050919050565b610e7181610e5e565b8114610e7c57600080fd5b50565b600081359050610e8e81610e68565b92915050565b600060208284031215610eaa57610ea9610ce5565b5b6000610eb884828501610e7f565b91505092915050565b610eca81610e5e565b82525050565b6000608082019050610ee56000830187610d7a565b610ef26020830186610d7a565b610eff6040830185610ec1565b610f0c6060830184610ec1565b95945050505050565b600080fd5b600080fd5b7f4e487b7100000000000000000000000000000000000000000000000000000000600052604160045260246000fd5b610f5782610dcf565b810181811067ffffffffffffffff82111715610f7657610f75610f1f565b5b80604052505050565b6000610f89610cdb565b9050610f958282610f4e565b919050565b600067ffffffffffffffff821115610fb557610fb4610f1f565b5b610fbe82610dcf565b9050602081019050919050565b82818337600083830152505050565b6000610fed610fe884610f9a565b610f7f565b90508281526020810184848401111561100957611008610f1a565b5b611014848285610fcb565b509392505050565b600082601f83011261103157611030610f15565b5b8135611041848260208601610fda565b91505092915050565b6000806040838503121561106157611060610ce5565b5b600083013567ffffffffffffffff81111561107f5761107e610cea565b5b61108b8582860161101c565b925050602083013567ffffffffffffffff8111156110ac576110ab610cea565b5b6110b88582860161101c565b9150509250929050565b600080600080608085870312156110dc576110db610ce5565b5b60006110ea87828801610d38565b94505060206110fb87828801610d38565b935050604061110c87828801610e7f565b925050606061111d87828801610e7f565b91505092959194509250565b7f4e487b7100000000000000000000000000000000000000000000000000000000600052602260045260246000fd5b6000600282049050600182168061117057607f821691505b60208210810361118357611182611129565b5b50919050565b7f476563657273697a206b69726120656e64656b73690000000000000000000000600082015250565b60006111bf601583610d94565b91506111ca82611189565b602082019050919050565b600060208201905081810360008301526111ee816111b2565b9050919050565b7f4e487b7100000000000000000000000000000000000000000000000000000000600052603260045260246000fd5b7f4275206b697261796920736f6e6c616e6469726d61207965746b696e697a207960008201527f6f6b2e0000000000000000000000000000000000000000000000000000000000602082015250565b6000611280602383610d94565b915061128b82611224565b604082019050919050565b600060208201905081810360008301526112af81611273565b9050919050565b60008190508160005260206000209050919050565b60006020601f8301049050919050565b600082821b905092915050565b6000600883026113187fffffffffffffffffffffffffffffffffffffffffffffffffffffffffffffffff826112db565b61132286836112db565b95508019841693508086168417925050509392505050565b6000819050919050565b600061135f61135a61135584610e5e565b61133a565b610e5e565b9050919050565b6000819050919050565b61137983611344565b61138d61138582611366565b8484546112e8565b825550505050565b600090565b6113a2611395565b6113ad818484611370565b505050565b5b818110156113d1576113c660008261139a565b6001810190506113b3565b5050565b601f821115611416576113e7816112b6565b6113f0846112cb565b810160208510156113ff578190505b61141361140b856112cb565b8301826113b2565b50505b505050565b600082821c905092915050565b60006114396000198460080261141b565b1980831691505092915050565b60006114528383611428565b9150826002028217905092915050565b61146b82610d89565b67ffffffffffffffff81111561148457611483610f1f565b5b61148e8254611158565b6114998282856113d5565b600060209050601f8311600181146114cc57600084156114ba578287015190505b6114c48582611446565b86555061152c565b601f1984166114da866112b6565b60005b82811015611502578489015182556001820191506020850194506020810190506114dd565b8683101561151f578489015161151b601f891682611428565b8355505b6001600288020188555050505b505050505050565b6000602082019050818103600083015261154e8184610de0565b905092915050565b7f4b697261636920646567696c73696e697a000000000000000000000000000000600082015250565b600061158c601183610d94565b915061159782611556565b602082019050919050565b600060208201905081810360008301526115bb8161157f565b9050919050565b7f4d756c6b2073616869626920646567696c73696e697a2e000000000000000000600082015250565b60006115f8601783610d94565b9150611603826115c2565b602082019050919050565b60006020820190508181036000830152611627816115eb565b9050919050565b60006040820190506116436000830185610ec1565b6116506020830184610ec1565b939250505056fea2646970667358221220c7ff93f60d4ea90e0badb22f379a8c5fe75c3be7831b5a9a5bd988d0c5b4b6cf64736f6c63430008120033",
					"opcodes": "PUSH1 0x80 PUSH1 0x40 MSTORE CALLVALUE DUP1 ISZERO PUSH2 0x10 JUMPI PUSH1 0x0 DUP1 REVERT JUMPDEST POP PUSH2 0x168D DUP1 PUSH2 0x20 PUSH1 0x0 CODECOPY PUSH1 0x0 RETURN INVALID PUSH1 0x80 PUSH1 0x40 MSTORE CALLVALUE DUP1 ISZERO PUSH2 0x10 JUMPI PUSH1 0x0 DUP1 REVERT JUMPDEST POP PUSH1 0x4 CALLDATASIZE LT PUSH2 0x7D JUMPI PUSH1 0x0 CALLDATALOAD PUSH1 0xE0 SHR DUP1 PUSH4 0x78CF3FE4 GT PUSH2 0x5B JUMPI DUP1 PUSH4 0x78CF3FE4 EQ PUSH2 0x103 JUMPI DUP1 PUSH4 0xCA399C39 EQ PUSH2 0x11F JUMPI DUP1 PUSH4 0xD9DBF11F EQ PUSH2 0x13B JUMPI DUP1 PUSH4 0xFF9599C0 EQ PUSH2 0x16D JUMPI PUSH2 0x7D JUMP JUMPDEST DUP1 PUSH4 0x1706D4A5 EQ PUSH2 0x82 JUMPI DUP1 PUSH4 0x539A9914 EQ PUSH2 0xB4 JUMPI DUP1 PUSH4 0x655C127F EQ PUSH2 0xE7 JUMPI JUMPDEST PUSH1 0x0 DUP1 REVERT JUMPDEST PUSH2 0x9C PUSH1 0x4 DUP1 CALLDATASIZE SUB DUP2 ADD SWAP1 PUSH2 0x97 SWAP2 SWAP1 PUSH2 0xD4D JUMP JUMPDEST PUSH2 0x189 JUMP JUMPDEST PUSH1 0x40 MLOAD PUSH2 0xAB SWAP4 SWAP3 SWAP2 SWAP1 PUSH2 0xE19 JUMP JUMPDEST PUSH1 0x40 MLOAD DUP1 SWAP2 SUB SWAP1 RETURN JUMPDEST PUSH2 0xCE PUSH1 0x4 DUP1 CALLDATASIZE SUB DUP2 ADD SWAP1 PUSH2 0xC9 SWAP2 SWAP1 PUSH2 0xE94 JUMP JUMPDEST PUSH2 0x2E3 JUMP JUMPDEST PUSH1 0x40 MLOAD PUSH2 0xDE SWAP5 SWAP4 SWAP3 SWAP2 SWAP1 PUSH2 0xED0 JUMP JUMPDEST PUSH1 0x40 MLOAD DUP1 SWAP2 SUB SWAP1 RETURN JUMPDEST PUSH2 0x101 PUSH1 0x4 DUP1 CALLDATASIZE SUB DUP2 ADD SWAP1 PUSH2 0xFC SWAP2 SWAP1 PUSH2 0xE94 JUMP JUMPDEST PUSH2 0x363 JUMP JUMPDEST STOP JUMPDEST PUSH2 0x11D PUSH1 0x4 DUP1 CALLDATASIZE SUB DUP2 ADD SWAP1 PUSH2 0x118 SWAP2 SWAP1 PUSH2 0x104A JUMP JUMPDEST PUSH2 0x647 JUMP JUMPDEST STOP JUMPDEST PUSH2 0x139 PUSH1 0x4 DUP1 CALLDATASIZE SUB DUP2 ADD SWAP1 PUSH2 0x134 SWAP2 SWAP1 PUSH2 0x104A JUMP JUMPDEST PUSH2 0x77F JUMP JUMPDEST STOP JUMPDEST PUSH2 0x155 PUSH1 0x4 DUP1 CALLDATASIZE SUB DUP2 ADD SWAP1 PUSH2 0x150 SWAP2 SWAP1 PUSH2 0xD4D JUMP JUMPDEST PUSH2 0x8B6 JUMP JUMPDEST PUSH1 0x40 MLOAD PUSH2 0x164 SWAP4 SWAP3 SWAP2 SWAP1 PUSH2 0xE19 JUMP JUMPDEST PUSH1 0x40 MLOAD DUP1 SWAP2 SUB SWAP1 RETURN JUMPDEST PUSH2 0x187 PUSH1 0x4 DUP1 CALLDATASIZE SUB DUP2 ADD SWAP1 PUSH2 0x182 SWAP2 SWAP1 PUSH2 0x10C2 JUMP JUMPDEST PUSH2 0xA10 JUMP JUMPDEST STOP JUMPDEST PUSH1 0x0 PUSH1 0x20 MSTORE DUP1 PUSH1 0x0 MSTORE PUSH1 0x40 PUSH1 0x0 KECCAK256 PUSH1 0x0 SWAP2 POP SWAP1 POP DUP1 PUSH1 0x0 ADD PUSH1 0x0 SWAP1 SLOAD SWAP1 PUSH2 0x100 EXP SWAP1 DIV PUSH20 0xFFFFFFFFFFFFFFFFFFFFFFFFFFFFFFFFFFFFFFFF AND SWAP1 DUP1 PUSH1 0x1 ADD DUP1 SLOAD PUSH2 0x1D2 SWAP1 PUSH2 0x1158 JUMP JUMPDEST DUP1 PUSH1 0x1F ADD PUSH1 0x20 DUP1 SWAP2 DIV MUL PUSH1 0x20 ADD PUSH1 0x40 MLOAD SWAP1 DUP2 ADD PUSH1 0x40 MSTORE DUP1 SWAP3 SWAP2 SWAP1 DUP2 DUP2 MSTORE PUSH1 0x20 ADD DUP3 DUP1 SLOAD PUSH2 0x1FE SWAP1 PUSH2 0x1158 JUMP JUMPDEST DUP1 ISZERO PUSH2 0x24B JUMPI DUP1 PUSH1 0x1F LT PUSH2 0x220 JUMPI PUSH2 0x100 DUP1 DUP4 SLOAD DIV MUL DUP4 MSTORE SWAP2 PUSH1 0x20 ADD SWAP2 PUSH2 0x24B JUMP JUMPDEST DUP3 ADD SWAP2 SWAP1 PUSH1 0x0 MSTORE PUSH1 0x20 PUSH1 0x0 KECCAK256 SWAP1 JUMPDEST DUP2 SLOAD DUP2 MSTORE SWAP1 PUSH1 0x1 ADD SWAP1 PUSH1 0x20 ADD DUP1 DUP4 GT PUSH2 0x22E JUMPI DUP3 SWAP1 SUB PUSH1 0x1F AND DUP3 ADD SWAP2 JUMPDEST POP POP POP POP POP SWAP1 DUP1 PUSH1 0x2 ADD DUP1 SLOAD PUSH2 0x260 SWAP1 PUSH2 0x1158 JUMP JUMPDEST DUP1 PUSH1 0x1F ADD PUSH1 0x20 DUP1 SWAP2 DIV MUL PUSH1 0x20 ADD PUSH1 0x40 MLOAD SWAP1 DUP2 ADD PUSH1 0x40 MSTORE DUP1 SWAP3 SWAP2 SWAP1 DUP2 DUP2 MSTORE PUSH1 0x20 ADD DUP3 DUP1 SLOAD PUSH2 0x28C SWAP1 PUSH2 0x1158 JUMP JUMPDEST DUP1 ISZERO PUSH2 0x2D9 JUMPI DUP1 PUSH1 0x1F LT PUSH2 0x2AE JUMPI PUSH2 0x100 DUP1 DUP4 SLOAD DIV MUL DUP4 MSTORE SWAP2 PUSH1 0x20 ADD SWAP2 PUSH2 0x2D9 JUMP JUMPDEST DUP3 ADD SWAP2 SWAP1 PUSH1 0x0 MSTORE PUSH1 0x20 PUSH1 0x0 KECCAK256 SWAP1 JUMPDEST DUP2 SLOAD DUP2 MSTORE SWAP1 PUSH1 0x1 ADD SWAP1 PUSH1 0x20 ADD DUP1 DUP4 GT PUSH2 0x2BC JUMPI DUP3 SWAP1 SUB PUSH1 0x1F AND DUP3 ADD SWAP2 JUMPDEST POP POP POP POP POP SWAP1 POP DUP4 JUMP JUMPDEST PUSH1 0x2 DUP2 DUP2 SLOAD DUP2 LT PUSH2 0x2F3 JUMPI PUSH1 0x0 DUP1 REVERT JUMPDEST SWAP1 PUSH1 0x0 MSTORE PUSH1 0x20 PUSH1 0x0 KECCAK256 SWAP1 PUSH1 0x4 MUL ADD PUSH1 0x0 SWAP2 POP SWAP1 POP DUP1 PUSH1 0x0 ADD PUSH1 0x0 SWAP1 SLOAD SWAP1 PUSH2 0x100 EXP SWAP1 DIV PUSH20 0xFFFFFFFFFFFFFFFFFFFFFFFFFFFFFFFFFFFFFFFF AND SWAP1 DUP1 PUSH1 0x1 ADD PUSH1 0x0 SWAP1 SLOAD SWAP1 PUSH2 0x100 EXP SWAP1 DIV PUSH20 0xFFFFFFFFFFFFFFFFFFFFFFFFFFFFFFFFFFFFFFFF AND SWAP1 DUP1 PUSH1 0x2 ADD SLOAD SWAP1 DUP1 PUSH1 0x3 ADD SLOAD SWAP1 POP DUP5 JUMP JUMPDEST PUSH1 0x2 DUP1 SLOAD SWAP1 POP DUP2 LT PUSH2 0x3AA JUMPI PUSH1 0x40 MLOAD PUSH32 0x8C379A000000000000000000000000000000000000000000000000000000000 DUP2 MSTORE PUSH1 0x4 ADD PUSH2 0x3A1 SWAP1 PUSH2 0x11D5 JUMP JUMPDEST PUSH1 0x40 MLOAD DUP1 SWAP2 SUB SWAP1 REVERT JUMPDEST PUSH1 0x0 PUSH1 0x2 DUP3 DUP2 SLOAD DUP2 LT PUSH2 0x3C0 JUMPI PUSH2 0x3BF PUSH2 0x11F5 JUMP JUMPDEST JUMPDEST SWAP1 PUSH1 0x0 MSTORE PUSH1 0x20 PUSH1 0x0 KECCAK256 SWAP1 PUSH1 0x4 MUL ADD SWAP1 POP DUP1 PUSH1 0x0 ADD PUSH1 0x0 SWAP1 SLOAD SWAP1 PUSH2 0x100 EXP SWAP1 DIV PUSH20 0xFFFFFFFFFFFFFFFFFFFFFFFFFFFFFFFFFFFFFFFF AND PUSH20 0xFFFFFFFFFFFFFFFFFFFFFFFFFFFFFFFFFFFFFFFF AND CALLER PUSH20 0xFFFFFFFFFFFFFFFFFFFFFFFFFFFFFFFFFFFFFFFF AND EQ DUP1 PUSH2 0x4DF JUMPI POP PUSH1 0x1 PUSH1 0x0 DUP3 PUSH1 0x1 ADD PUSH1 0x0 SWAP1 SLOAD SWAP1 PUSH2 0x100 EXP SWAP1 DIV PUSH20 0xFFFFFFFFFFFFFFFFFFFFFFFFFFFFFFFFFFFFFFFF AND PUSH20 0xFFFFFFFFFFFFFFFFFFFFFFFFFFFFFFFFFFFFFFFF AND PUSH20 0xFFFFFFFFFFFFFFFFFFFFFFFFFFFFFFFFFFFFFFFF AND DUP2 MSTORE PUSH1 0x20 ADD SWAP1 DUP2 MSTORE PUSH1 0x20 ADD PUSH1 0x0 KECCAK256 PUSH1 0x0 ADD PUSH1 0x0 SWAP1 SLOAD SWAP1 PUSH2 0x100 EXP SWAP1 DIV PUSH20 0xFFFFFFFFFFFFFFFFFFFFFFFFFFFFFFFFFFFFFFFF AND PUSH20 0xFFFFFFFFFFFFFFFFFFFFFFFFFFFFFFFFFFFFFFFF AND CALLER PUSH20 0xFFFFFFFFFFFFFFFFFFFFFFFFFFFFFFFFFFFFFFFF AND EQ JUMPDEST PUSH2 0x51E JUMPI PUSH1 0x40 MLOAD PUSH32 0x8C379A000000000000000000000000000000000000000000000000000000000 DUP2 MSTORE PUSH1 0x4 ADD PUSH2 0x515 SWAP1 PUSH2 0x1296 JUMP JUMPDEST PUSH1 0x40 MLOAD DUP1 SWAP2 SUB SWAP1 REVERT JUMPDEST PUSH1 0x2 DUP3 DUP2 SLOAD DUP2 LT PUSH2 0x532 JUMPI PUSH2 0x531 PUSH2 0x11F5 JUMP JUMPDEST JUMPDEST SWAP1 PUSH1 0x0 MSTORE PUSH1 0x20 PUSH1 0x0 KECCAK256 SWAP1 PUSH1 0x4 MUL ADD PUSH1 0x0 DUP1 DUP3 ADD PUSH1 0x0 PUSH2 0x100 EXP DUP2 SLOAD SWAP1 PUSH20 0xFFFFFFFFFFFFFFFFFFFFFFFFFFFFFFFFFFFFFFFF MUL NOT AND SWAP1 SSTORE PUSH1 0x1 DUP3 ADD PUSH1 0x0 PUSH2 0x100 EXP DUP2 SLOAD SWAP1 PUSH20 0xFFFFFFFFFFFFFFFFFFFFFFFFFFFFFFFFFFFFFFFF MUL NOT AND SWAP1 SSTORE PUSH1 0x2 DUP3 ADD PUSH1 0x0 SWAP1 SSTORE PUSH1 0x3 DUP3 ADD PUSH1 0x0 SWAP1 SSTORE POP POP DUP1 PUSH1 0x1 ADD PUSH1 0x0 SWAP1 SLOAD SWAP1 PUSH2 0x100 EXP SWAP1 DIV PUSH20 0xFFFFFFFFFFFFFFFFFFFFFFFFFFFFFFFFFFFFFFFF AND PUSH20 0xFFFFFFFFFFFFFFFFFFFFFFFFFFFFFFFFFFFFFFFF AND DUP2 PUSH1 0x0 ADD PUSH1 0x0 SWAP1 SLOAD SWAP1 PUSH2 0x100 EXP SWAP1 DIV PUSH20 0xFFFFFFFFFFFFFFFFFFFFFFFFFFFFFFFFFFFFFFFF AND PUSH20 0xFFFFFFFFFFFFFFFFFFFFFFFFFFFFFFFFFFFFFFFF AND PUSH32 0x19C3AB800DD161D024EA5550FA205C593558278BD1D9E262582727DE8744322 PUSH1 0x40 MLOAD PUSH1 0x40 MLOAD DUP1 SWAP2 SUB SWAP1 LOG3 POP POP JUMP JUMPDEST PUSH1 0x40 MLOAD DUP1 PUSH1 0x60 ADD PUSH1 0x40 MSTORE DUP1 CALLER PUSH20 0xFFFFFFFFFFFFFFFFFFFFFFFFFFFFFFFFFFFFFFFF AND DUP2 MSTORE PUSH1 0x20 ADD DUP4 DUP2 MSTORE PUSH1 0x20 ADD DUP3 DUP2 MSTORE POP PUSH1 0x1 PUSH1 0x0 CALLER PUSH20 0xFFFFFFFFFFFFFFFFFFFFFFFFFFFFFFFFFFFFFFFF AND PUSH20 0xFFFFFFFFFFFFFFFFFFFFFFFFFFFFFFFFFFFFFFFF AND DUP2 MSTORE PUSH1 0x20 ADD SWAP1 DUP2 MSTORE PUSH1 0x20 ADD PUSH1 0x0 KECCAK256 PUSH1 0x0 DUP3 ADD MLOAD DUP2 PUSH1 0x0 ADD PUSH1 0x0 PUSH2 0x100 EXP DUP2 SLOAD DUP2 PUSH20 0xFFFFFFFFFFFFFFFFFFFFFFFFFFFFFFFFFFFFFFFF MUL NOT AND SWAP1 DUP4 PUSH20 0xFFFFFFFFFFFFFFFFFFFFFFFFFFFFFFFFFFFFFFFF AND MUL OR SWAP1 SSTORE POP PUSH1 0x20 DUP3 ADD MLOAD DUP2 PUSH1 0x1 ADD SWAP1 DUP2 PUSH2 0x713 SWAP2 SWAP1 PUSH2 0x1462 JUMP JUMPDEST POP PUSH1 0x40 DUP3 ADD MLOAD DUP2 PUSH1 0x2 ADD SWAP1 DUP2 PUSH2 0x729 SWAP2 SWAP1 PUSH2 0x1462 JUMP JUMPDEST POP SWAP1 POP POP CALLER PUSH20 0xFFFFFFFFFFFFFFFFFFFFFFFFFFFFFFFFFFFFFFFF AND PUSH32 0x95E79F8A3098E92716E1774BE1DD5EE3683BEDCB88DA7996122F3BB4D52B108C DUP4 PUSH1 0x40 MLOAD PUSH2 0x773 SWAP2 SWAP1 PUSH2 0x1534 JUMP JUMPDEST PUSH1 0x40 MLOAD DUP1 SWAP2 SUB SWAP1 LOG2 POP POP JUMP JUMPDEST PUSH1 0x40 MLOAD DUP1 PUSH1 0x60 ADD PUSH1 0x40 MSTORE DUP1 CALLER PUSH20 0xFFFFFFFFFFFFFFFFFFFFFFFFFFFFFFFFFFFFFFFF AND DUP2 MSTORE PUSH1 0x20 ADD DUP4 DUP2 MSTORE PUSH1 0x20 ADD DUP3 DUP2 MSTORE POP PUSH1 0x0 DUP1 CALLER PUSH20 0xFFFFFFFFFFFFFFFFFFFFFFFFFFFFFFFFFFFFFFFF AND PUSH20 0xFFFFFFFFFFFFFFFFFFFFFFFFFFFFFFFFFFFFFFFF AND DUP2 MSTORE PUSH1 0x20 ADD SWAP1 DUP2 MSTORE PUSH1 0x20 ADD PUSH1 0x0 KECCAK256 PUSH1 0x0 DUP3 ADD MLOAD DUP2 PUSH1 0x0 ADD PUSH1 0x0 PUSH2 0x100 EXP DUP2 SLOAD DUP2 PUSH20 0xFFFFFFFFFFFFFFFFFFFFFFFFFFFFFFFFFFFFFFFF MUL NOT AND SWAP1 DUP4 PUSH20 0xFFFFFFFFFFFFFFFFFFFFFFFFFFFFFFFFFFFFFFFF AND MUL OR SWAP1 SSTORE POP PUSH1 0x20 DUP3 ADD MLOAD DUP2 PUSH1 0x1 ADD SWAP1 DUP2 PUSH2 0x84A SWAP2 SWAP1 PUSH2 0x1462 JUMP JUMPDEST POP PUSH1 0x40 DUP3 ADD MLOAD DUP2 PUSH1 0x2 ADD SWAP1 DUP2 PUSH2 0x860 SWAP2 SWAP1 PUSH2 0x1462 JUMP JUMPDEST POP SWAP1 POP POP CALLER PUSH20 0xFFFFFFFFFFFFFFFFFFFFFFFFFFFFFFFFFFFFFFFF AND PUSH32 0x5ECE79A81F7CAD89BE3EC74311522C64EF780984A1101D5F5D73B7490907336E DUP4 PUSH1 0x40 MLOAD PUSH2 0x8AA SWAP2 SWAP1 PUSH2 0x1534 JUMP JUMPDEST PUSH1 0x40 MLOAD DUP1 SWAP2 SUB SWAP1 LOG2 POP POP JUMP JUMPDEST PUSH1 0x1 PUSH1 0x20 MSTORE DUP1 PUSH1 0x0 MSTORE PUSH1 0x40 PUSH1 0x0 KECCAK256 PUSH1 0x0 SWAP2 POP SWAP1 POP DUP1 PUSH1 0x0 ADD PUSH1 0x0 SWAP1 SLOAD SWAP1 PUSH2 0x100 EXP SWAP1 DIV PUSH20 0xFFFFFFFFFFFFFFFFFFFFFFFFFFFFFFFFFFFFFFFF AND SWAP1 DUP1 PUSH1 0x1 ADD DUP1 SLOAD PUSH2 0x8FF SWAP1 PUSH2 0x1158 JUMP JUMPDEST DUP1 PUSH1 0x1F ADD PUSH1 0x20 DUP1 SWAP2 DIV MUL PUSH1 0x20 ADD PUSH1 0x40 MLOAD SWAP1 DUP2 ADD PUSH1 0x40 MSTORE DUP1 SWAP3 SWAP2 SWAP1 DUP2 DUP2 MSTORE PUSH1 0x20 ADD DUP3 DUP1 SLOAD PUSH2 0x92B SWAP1 PUSH2 0x1158 JUMP JUMPDEST DUP1 ISZERO PUSH2 0x978 JUMPI DUP1 PUSH1 0x1F LT PUSH2 0x94D JUMPI PUSH2 0x100 DUP1 DUP4 SLOAD DIV MUL DUP4 MSTORE SWAP2 PUSH1 0x20 ADD SWAP2 PUSH2 0x978 JUMP JUMPDEST DUP3 ADD SWAP2 SWAP1 PUSH1 0x0 MSTORE PUSH1 0x20 PUSH1 0x0 KECCAK256 SWAP1 JUMPDEST DUP2 SLOAD DUP2 MSTORE SWAP1 PUSH1 0x1 ADD SWAP1 PUSH1 0x20 ADD DUP1 DUP4 GT PUSH2 0x95B JUMPI DUP3 SWAP1 SUB PUSH1 0x1F AND DUP3 ADD SWAP2 JUMPDEST POP POP POP POP POP SWAP1 DUP1 PUSH1 0x2 ADD DUP1 SLOAD PUSH2 0x98D SWAP1 PUSH2 0x1158 JUMP JUMPDEST DUP1 PUSH1 0x1F ADD PUSH1 0x20 DUP1 SWAP2 DIV MUL PUSH1 0x20 ADD PUSH1 0x40 MLOAD SWAP1 DUP2 ADD PUSH1 0x40 MSTORE DUP1 SWAP3 SWAP2 SWAP1 DUP2 DUP2 MSTORE PUSH1 0x20 ADD DUP3 DUP1 SLOAD PUSH2 0x9B9 SWAP1 PUSH2 0x1158 JUMP JUMPDEST DUP1 ISZERO PUSH2 0xA06 JUMPI DUP1 PUSH1 0x1F LT PUSH2 0x9DB JUMPI PUSH2 0x100 DUP1 DUP4 SLOAD DIV MUL DUP4 MSTORE SWAP2 PUSH1 0x20 ADD SWAP2 PUSH2 0xA06 JUMP JUMPDEST DUP3 ADD SWAP2 SWAP1 PUSH1 0x0 MSTORE PUSH1 0x20 PUSH1 0x0 KECCAK256 SWAP1 JUMPDEST DUP2 SLOAD DUP2 MSTORE SWAP1 PUSH1 0x1 ADD SWAP1 PUSH1 0x20 ADD DUP1 DUP4 GT PUSH2 0x9E9 JUMPI DUP3 SWAP1 SUB PUSH1 0x1F AND DUP3 ADD SWAP2 JUMPDEST POP POP POP POP POP SWAP1 POP DUP4 JUMP JUMPDEST DUP4 DUP1 PUSH20 0xFFFFFFFFFFFFFFFFFFFFFFFFFFFFFFFFFFFFFFFF AND CALLER PUSH20 0xFFFFFFFFFFFFFFFFFFFFFFFFFFFFFFFFFFFFFFFF AND EQ PUSH2 0xA7F JUMPI PUSH1 0x40 MLOAD PUSH32 0x8C379A000000000000000000000000000000000000000000000000000000000 DUP2 MSTORE PUSH1 0x4 ADD PUSH2 0xA76 SWAP1 PUSH2 0x15A2 JUMP JUMPDEST PUSH1 0x40 MLOAD DUP1 SWAP2 SUB SWAP1 REVERT JUMPDEST DUP4 PUSH1 0x1 PUSH1 0x0 DUP3 PUSH20 0xFFFFFFFFFFFFFFFFFFFFFFFFFFFFFFFFFFFFFFFF AND PUSH20 0xFFFFFFFFFFFFFFFFFFFFFFFFFFFFFFFFFFFFFFFF AND DUP2 MSTORE PUSH1 0x20 ADD SWAP1 DUP2 MSTORE PUSH1 0x20 ADD PUSH1 0x0 KECCAK256 PUSH1 0x0 ADD PUSH1 0x0 SWAP1 SLOAD SWAP1 PUSH2 0x100 EXP SWAP1 DIV PUSH20 0xFFFFFFFFFFFFFFFFFFFFFFFFFFFFFFFFFFFFFFFF AND PUSH20 0xFFFFFFFFFFFFFFFFFFFFFFFFFFFFFFFFFFFFFFFF AND CALLER PUSH20 0xFFFFFFFFFFFFFFFFFFFFFFFFFFFFFFFFFFFFFFFF AND EQ PUSH2 0xB50 JUMPI PUSH1 0x40 MLOAD PUSH32 0x8C379A000000000000000000000000000000000000000000000000000000000 DUP2 MSTORE PUSH1 0x4 ADD PUSH2 0xB47 SWAP1 PUSH2 0x160E JUMP JUMPDEST PUSH1 0x40 MLOAD DUP1 SWAP2 SUB SWAP1 REVERT JUMPDEST PUSH1 0x2 PUSH1 0x40 MLOAD DUP1 PUSH1 0x80 ADD PUSH1 0x40 MSTORE DUP1 DUP9 PUSH20 0xFFFFFFFFFFFFFFFFFFFFFFFFFFFFFFFFFFFFFFFF AND DUP2 MSTORE PUSH1 0x20 ADD DUP8 PUSH20 0xFFFFFFFFFFFFFFFFFFFFFFFFFFFFFFFFFFFFFFFF AND DUP2 MSTORE PUSH1 0x20 ADD DUP7 DUP2 MSTORE PUSH1 0x20 ADD DUP6 DUP2 MSTORE POP SWAP1 DUP1 PUSH1 0x1 DUP2 SLOAD ADD DUP1 DUP3 SSTORE DUP1 SWAP2 POP POP PUSH1 0x1 SWAP1 SUB SWAP1 PUSH1 0x0 MSTORE PUSH1 0x20 PUSH1 0x0 KECCAK256 SWAP1 PUSH1 0x4 MUL ADD PUSH1 0x0 SWAP1 SWAP2 SWAP1 SWAP2 SWAP1 SWAP2 POP PUSH1 0x0 DUP3 ADD MLOAD DUP2 PUSH1 0x0 ADD PUSH1 0x0 PUSH2 0x100 EXP DUP2 SLOAD DUP2 PUSH20 0xFFFFFFFFFFFFFFFFFFFFFFFFFFFFFFFFFFFFFFFF MUL NOT AND SWAP1 DUP4 PUSH20 0xFFFFFFFFFFFFFFFFFFFFFFFFFFFFFFFFFFFFFFFF AND MUL OR SWAP1 SSTORE POP PUSH1 0x20 DUP3 ADD MLOAD DUP2 PUSH1 0x1 ADD PUSH1 0x0 PUSH2 0x100 EXP DUP2 SLOAD DUP2 PUSH20 0xFFFFFFFFFFFFFFFFFFFFFFFFFFFFFFFFFFFFFFFF MUL NOT AND SWAP1 DUP4 PUSH20 0xFFFFFFFFFFFFFFFFFFFFFFFFFFFFFFFFFFFFFFFF AND MUL OR SWAP1 SSTORE POP PUSH1 0x40 DUP3 ADD MLOAD DUP2 PUSH1 0x2 ADD SSTORE PUSH1 0x60 DUP3 ADD MLOAD DUP2 PUSH1 0x3 ADD SSTORE POP POP DUP5 PUSH20 0xFFFFFFFFFFFFFFFFFFFFFFFFFFFFFFFFFFFFFFFF AND DUP7 PUSH20 0xFFFFFFFFFFFFFFFFFFFFFFFFFFFFFFFFFFFFFFFF AND PUSH32 0x33AE89B2197CE5B87FEEC8152EA1C832D55BF86EFAFBB866F723FF2F558DA893 DUP7 DUP7 PUSH1 0x40 MLOAD PUSH2 0xCCB SWAP3 SWAP2 SWAP1 PUSH2 0x162E JUMP JUMPDEST PUSH1 0x40 MLOAD DUP1 SWAP2 SUB SWAP1 LOG3 POP POP POP POP POP POP JUMP JUMPDEST PUSH1 0x0 PUSH1 0x40 MLOAD SWAP1 POP SWAP1 JUMP JUMPDEST PUSH1 0x0 DUP1 REVERT JUMPDEST PUSH1 0x0 DUP1 REVERT JUMPDEST PUSH1 0x0 PUSH20 0xFFFFFFFFFFFFFFFFFFFFFFFFFFFFFFFFFFFFFFFF DUP3 AND SWAP1 POP SWAP2 SWAP1 POP JUMP JUMPDEST PUSH1 0x0 PUSH2 0xD1A DUP3 PUSH2 0xCEF JUMP JUMPDEST SWAP1 POP SWAP2 SWAP1 POP JUMP JUMPDEST PUSH2 0xD2A DUP2 PUSH2 0xD0F JUMP JUMPDEST DUP2 EQ PUSH2 0xD35 JUMPI PUSH1 0x0 DUP1 REVERT JUMPDEST POP JUMP JUMPDEST PUSH1 0x0 DUP2 CALLDATALOAD SWAP1 POP PUSH2 0xD47 DUP2 PUSH2 0xD21 JUMP JUMPDEST SWAP3 SWAP2 POP POP JUMP JUMPDEST PUSH1 0x0 PUSH1 0x20 DUP3 DUP5 SUB SLT ISZERO PUSH2 0xD63 JUMPI PUSH2 0xD62 PUSH2 0xCE5 JUMP JUMPDEST JUMPDEST PUSH1 0x0 PUSH2 0xD71 DUP5 DUP3 DUP6 ADD PUSH2 0xD38 JUMP JUMPDEST SWAP2 POP POP SWAP3 SWAP2 POP POP JUMP JUMPDEST PUSH2 0xD83 DUP2 PUSH2 0xD0F JUMP JUMPDEST DUP3 MSTORE POP POP JUMP JUMPDEST PUSH1 0x0 DUP2 MLOAD SWAP1 POP SWAP2 SWAP1 POP JUMP JUMPDEST PUSH1 0x0 DUP3 DUP3 MSTORE PUSH1 0x20 DUP3 ADD SWAP1 POP SWAP3 SWAP2 POP POP JUMP JUMPDEST PUSH1 0x0 JUMPDEST DUP4 DUP2 LT ISZERO PUSH2 0xDC3 JUMPI DUP1 DUP3 ADD MLOAD DUP2 DUP5 ADD MSTORE PUSH1 0x20 DUP2 ADD SWAP1 POP PUSH2 0xDA8 JUMP JUMPDEST PUSH1 0x0 DUP5 DUP5 ADD MSTORE POP POP POP POP JUMP JUMPDEST PUSH1 0x0 PUSH1 0x1F NOT PUSH1 0x1F DUP4 ADD AND SWAP1 POP SWAP2 SWAP1 POP JUMP JUMPDEST PUSH1 0x0 PUSH2 0xDEB DUP3 PUSH2 0xD89 JUMP JUMPDEST PUSH2 0xDF5 DUP2 DUP6 PUSH2 0xD94 JUMP JUMPDEST SWAP4 POP PUSH2 0xE05 DUP2 DUP6 PUSH1 0x20 DUP7 ADD PUSH2 0xDA5 JUMP JUMPDEST PUSH2 0xE0E DUP2 PUSH2 0xDCF JUMP JUMPDEST DUP5 ADD SWAP2 POP POP SWAP3 SWAP2 POP POP JUMP JUMPDEST PUSH1 0x0 PUSH1 0x60 DUP3 ADD SWAP1 POP PUSH2 0xE2E PUSH1 0x0 DUP4 ADD DUP7 PUSH2 0xD7A JUMP JUMPDEST DUP2 DUP2 SUB PUSH1 0x20 DUP4 ADD MSTORE PUSH2 0xE40 DUP2 DUP6 PUSH2 0xDE0 JUMP JUMPDEST SWAP1 POP DUP2 DUP2 SUB PUSH1 0x40 DUP4 ADD MSTORE PUSH2 0xE54 DUP2 DUP5 PUSH2 0xDE0 JUMP JUMPDEST SWAP1 POP SWAP5 SWAP4 POP POP POP POP JUMP JUMPDEST PUSH1 0x0 DUP2 SWAP1 POP SWAP2 SWAP1 POP JUMP JUMPDEST PUSH2 0xE71 DUP2 PUSH2 0xE5E JUMP JUMPDEST DUP2 EQ PUSH2 0xE7C JUMPI PUSH1 0x0 DUP1 REVERT JUMPDEST POP JUMP JUMPDEST PUSH1 0x0 DUP2 CALLDATALOAD SWAP1 POP PUSH2 0xE8E DUP2 PUSH2 0xE68 JUMP JUMPDEST SWAP3 SWAP2 POP POP JUMP JUMPDEST PUSH1 0x0 PUSH1 0x20 DUP3 DUP5 SUB SLT ISZERO PUSH2 0xEAA JUMPI PUSH2 0xEA9 PUSH2 0xCE5 JUMP JUMPDEST JUMPDEST PUSH1 0x0 PUSH2 0xEB8 DUP5 DUP3 DUP6 ADD PUSH2 0xE7F JUMP JUMPDEST SWAP2 POP POP SWAP3 SWAP2 POP POP JUMP JUMPDEST PUSH2 0xECA DUP2 PUSH2 0xE5E JUMP JUMPDEST DUP3 MSTORE POP POP JUMP JUMPDEST PUSH1 0x0 PUSH1 0x80 DUP3 ADD SWAP1 POP PUSH2 0xEE5 PUSH1 0x0 DUP4 ADD DUP8 PUSH2 0xD7A JUMP JUMPDEST PUSH2 0xEF2 PUSH1 0x20 DUP4 ADD DUP7 PUSH2 0xD7A JUMP JUMPDEST PUSH2 0xEFF PUSH1 0x40 DUP4 ADD DUP6 PUSH2 0xEC1 JUMP JUMPDEST PUSH2 0xF0C PUSH1 0x60 DUP4 ADD DUP5 PUSH2 0xEC1 JUMP JUMPDEST SWAP6 SWAP5 POP POP POP POP POP JUMP JUMPDEST PUSH1 0x0 DUP1 REVERT JUMPDEST PUSH1 0x0 DUP1 REVERT JUMPDEST PUSH32 0x4E487B7100000000000000000000000000000000000000000000000000000000 PUSH1 0x0 MSTORE PUSH1 0x41 PUSH1 0x4 MSTORE PUSH1 0x24 PUSH1 0x0 REVERT JUMPDEST PUSH2 0xF57 DUP3 PUSH2 0xDCF JUMP JUMPDEST DUP2 ADD DUP2 DUP2 LT PUSH8 0xFFFFFFFFFFFFFFFF DUP3 GT OR ISZERO PUSH2 0xF76 JUMPI PUSH2 0xF75 PUSH2 0xF1F JUMP JUMPDEST JUMPDEST DUP1 PUSH1 0x40 MSTORE POP POP POP JUMP JUMPDEST PUSH1 0x0 PUSH2 0xF89 PUSH2 0xCDB JUMP JUMPDEST SWAP1 POP PUSH2 0xF95 DUP3 DUP3 PUSH2 0xF4E JUMP JUMPDEST SWAP2 SWAP1 POP JUMP JUMPDEST PUSH1 0x0 PUSH8 0xFFFFFFFFFFFFFFFF DUP3 GT ISZERO PUSH2 0xFB5 JUMPI PUSH2 0xFB4 PUSH2 0xF1F JUMP JUMPDEST JUMPDEST PUSH2 0xFBE DUP3 PUSH2 0xDCF JUMP JUMPDEST SWAP1 POP PUSH1 0x20 DUP2 ADD SWAP1 POP SWAP2 SWAP1 POP JUMP JUMPDEST DUP3 DUP2 DUP4 CALLDATACOPY PUSH1 0x0 DUP4 DUP4 ADD MSTORE POP POP POP JUMP JUMPDEST PUSH1 0x0 PUSH2 0xFED PUSH2 0xFE8 DUP5 PUSH2 0xF9A JUMP JUMPDEST PUSH2 0xF7F JUMP JUMPDEST SWAP1 POP DUP3 DUP2 MSTORE PUSH1 0x20 DUP2 ADD DUP5 DUP5 DUP5 ADD GT ISZERO PUSH2 0x1009 JUMPI PUSH2 0x1008 PUSH2 0xF1A JUMP JUMPDEST JUMPDEST PUSH2 0x1014 DUP5 DUP3 DUP6 PUSH2 0xFCB JUMP JUMPDEST POP SWAP4 SWAP3 POP POP POP JUMP JUMPDEST PUSH1 0x0 DUP3 PUSH1 0x1F DUP4 ADD SLT PUSH2 0x1031 JUMPI PUSH2 0x1030 PUSH2 0xF15 JUMP JUMPDEST JUMPDEST DUP2 CALLDATALOAD PUSH2 0x1041 DUP5 DUP3 PUSH1 0x20 DUP7 ADD PUSH2 0xFDA JUMP JUMPDEST SWAP2 POP POP SWAP3 SWAP2 POP POP JUMP JUMPDEST PUSH1 0x0 DUP1 PUSH1 0x40 DUP4 DUP6 SUB SLT ISZERO PUSH2 0x1061 JUMPI PUSH2 0x1060 PUSH2 0xCE5 JUMP JUMPDEST JUMPDEST PUSH1 0x0 DUP4 ADD CALLDATALOAD PUSH8 0xFFFFFFFFFFFFFFFF DUP2 GT ISZERO PUSH2 0x107F JUMPI PUSH2 0x107E PUSH2 0xCEA JUMP JUMPDEST JUMPDEST PUSH2 0x108B DUP6 DUP3 DUP7 ADD PUSH2 0x101C JUMP JUMPDEST SWAP3 POP POP PUSH1 0x20 DUP4 ADD CALLDATALOAD PUSH8 0xFFFFFFFFFFFFFFFF DUP2 GT ISZERO PUSH2 0x10AC JUMPI PUSH2 0x10AB PUSH2 0xCEA JUMP JUMPDEST JUMPDEST PUSH2 0x10B8 DUP6 DUP3 DUP7 ADD PUSH2 0x101C JUMP JUMPDEST SWAP2 POP POP SWAP3 POP SWAP3 SWAP1 POP JUMP JUMPDEST PUSH1 0x0 DUP1 PUSH1 0x0 DUP1 PUSH1 0x80 DUP6 DUP8 SUB SLT ISZERO PUSH2 0x10DC JUMPI PUSH2 0x10DB PUSH2 0xCE5 JUMP JUMPDEST JUMPDEST PUSH1 0x0 PUSH2 0x10EA DUP8 DUP3 DUP9 ADD PUSH2 0xD38 JUMP JUMPDEST SWAP5 POP POP PUSH1 0x20 PUSH2 0x10FB DUP8 DUP3 DUP9 ADD PUSH2 0xD38 JUMP JUMPDEST SWAP4 POP POP PUSH1 0x40 PUSH2 0x110C DUP8 DUP3 DUP9 ADD PUSH2 0xE7F JUMP JUMPDEST SWAP3 POP POP PUSH1 0x60 PUSH2 0x111D DUP8 DUP3 DUP9 ADD PUSH2 0xE7F JUMP JUMPDEST SWAP2 POP POP SWAP3 SWAP6 SWAP2 SWAP5 POP SWAP3 POP JUMP JUMPDEST PUSH32 0x4E487B7100000000000000000000000000000000000000000000000000000000 PUSH1 0x0 MSTORE PUSH1 0x22 PUSH1 0x4 MSTORE PUSH1 0x24 PUSH1 0x0 REVERT JUMPDEST PUSH1 0x0 PUSH1 0x2 DUP3 DIV SWAP1 POP PUSH1 0x1 DUP3 AND DUP1 PUSH2 0x1170 JUMPI PUSH1 0x7F DUP3 AND SWAP2 POP JUMPDEST PUSH1 0x20 DUP3 LT DUP2 SUB PUSH2 0x1183 JUMPI PUSH2 0x1182 PUSH2 0x1129 JUMP JUMPDEST JUMPDEST POP SWAP2 SWAP1 POP JUMP JUMPDEST PUSH32 0x476563657273697A206B69726120656E64656B73690000000000000000000000 PUSH1 0x0 DUP3 ADD MSTORE POP JUMP JUMPDEST PUSH1 0x0 PUSH2 0x11BF PUSH1 0x15 DUP4 PUSH2 0xD94 JUMP JUMPDEST SWAP2 POP PUSH2 0x11CA DUP3 PUSH2 0x1189 JUMP JUMPDEST PUSH1 0x20 DUP3 ADD SWAP1 POP SWAP2 SWAP1 POP JUMP JUMPDEST PUSH1 0x0 PUSH1 0x20 DUP3 ADD SWAP1 POP DUP2 DUP2 SUB PUSH1 0x0 DUP4 ADD MSTORE PUSH2 0x11EE DUP2 PUSH2 0x11B2 JUMP JUMPDEST SWAP1 POP SWAP2 SWAP1 POP JUMP JUMPDEST PUSH32 0x4E487B7100000000000000000000000000000000000000000000000000000000 PUSH1 0x0 MSTORE PUSH1 0x32 PUSH1 0x4 MSTORE PUSH1 0x24 PUSH1 0x0 REVERT JUMPDEST PUSH32 0x4275206B697261796920736F6E6C616E6469726D61207965746B696E697A2079 PUSH1 0x0 DUP3 ADD MSTORE PUSH32 0x6F6B2E0000000000000000000000000000000000000000000000000000000000 PUSH1 0x20 DUP3 ADD MSTORE POP JUMP JUMPDEST PUSH1 0x0 PUSH2 0x1280 PUSH1 0x23 DUP4 PUSH2 0xD94 JUMP JUMPDEST SWAP2 POP PUSH2 0x128B DUP3 PUSH2 0x1224 JUMP JUMPDEST PUSH1 0x40 DUP3 ADD SWAP1 POP SWAP2 SWAP1 POP JUMP JUMPDEST PUSH1 0x0 PUSH1 0x20 DUP3 ADD SWAP1 POP DUP2 DUP2 SUB PUSH1 0x0 DUP4 ADD MSTORE PUSH2 0x12AF DUP2 PUSH2 0x1273 JUMP JUMPDEST SWAP1 POP SWAP2 SWAP1 POP JUMP JUMPDEST PUSH1 0x0 DUP2 SWAP1 POP DUP2 PUSH1 0x0 MSTORE PUSH1 0x20 PUSH1 0x0 KECCAK256 SWAP1 POP SWAP2 SWAP1 POP JUMP JUMPDEST PUSH1 0x0 PUSH1 0x20 PUSH1 0x1F DUP4 ADD DIV SWAP1 POP SWAP2 SWAP1 POP JUMP JUMPDEST PUSH1 0x0 DUP3 DUP3 SHL SWAP1 POP SWAP3 SWAP2 POP POP JUMP JUMPDEST PUSH1 0x0 PUSH1 0x8 DUP4 MUL PUSH2 0x1318 PUSH32 0xFFFFFFFFFFFFFFFFFFFFFFFFFFFFFFFFFFFFFFFFFFFFFFFFFFFFFFFFFFFFFFFF DUP3 PUSH2 0x12DB JUMP JUMPDEST PUSH2 0x1322 DUP7 DUP4 PUSH2 0x12DB JUMP JUMPDEST SWAP6 POP DUP1 NOT DUP5 AND SWAP4 POP DUP1 DUP7 AND DUP5 OR SWAP3 POP POP POP SWAP4 SWAP3 POP POP POP JUMP JUMPDEST PUSH1 0x0 DUP2 SWAP1 POP SWAP2 SWAP1 POP JUMP JUMPDEST PUSH1 0x0 PUSH2 0x135F PUSH2 0x135A PUSH2 0x1355 DUP5 PUSH2 0xE5E JUMP JUMPDEST PUSH2 0x133A JUMP JUMPDEST PUSH2 0xE5E JUMP JUMPDEST SWAP1 POP SWAP2 SWAP1 POP JUMP JUMPDEST PUSH1 0x0 DUP2 SWAP1 POP SWAP2 SWAP1 POP JUMP JUMPDEST PUSH2 0x1379 DUP4 PUSH2 0x1344 JUMP JUMPDEST PUSH2 0x138D PUSH2 0x1385 DUP3 PUSH2 0x1366 JUMP JUMPDEST DUP5 DUP5 SLOAD PUSH2 0x12E8 JUMP JUMPDEST DUP3 SSTORE POP POP POP POP JUMP JUMPDEST PUSH1 0x0 SWAP1 JUMP JUMPDEST PUSH2 0x13A2 PUSH2 0x1395 JUMP JUMPDEST PUSH2 0x13AD DUP2 DUP5 DUP5 PUSH2 0x1370 JUMP JUMPDEST POP POP POP JUMP JUMPDEST JUMPDEST DUP2 DUP2 LT ISZERO PUSH2 0x13D1 JUMPI PUSH2 0x13C6 PUSH1 0x0 DUP3 PUSH2 0x139A JUMP JUMPDEST PUSH1 0x1 DUP2 ADD SWAP1 POP PUSH2 0x13B3 JUMP JUMPDEST POP POP JUMP JUMPDEST PUSH1 0x1F DUP3 GT ISZERO PUSH2 0x1416 JUMPI PUSH2 0x13E7 DUP2 PUSH2 0x12B6 JUMP JUMPDEST PUSH2 0x13F0 DUP5 PUSH2 0x12CB JUMP JUMPDEST DUP2 ADD PUSH1 0x20 DUP6 LT ISZERO PUSH2 0x13FF JUMPI DUP2 SWAP1 POP JUMPDEST PUSH2 0x1413 PUSH2 0x140B DUP6 PUSH2 0x12CB JUMP JUMPDEST DUP4 ADD DUP3 PUSH2 0x13B2 JUMP JUMPDEST POP POP JUMPDEST POP POP POP JUMP JUMPDEST PUSH1 0x0 DUP3 DUP3 SHR SWAP1 POP SWAP3 SWAP2 POP POP JUMP JUMPDEST PUSH1 0x0 PUSH2 0x1439 PUSH1 0x0 NOT DUP5 PUSH1 0x8 MUL PUSH2 0x141B JUMP JUMPDEST NOT DUP1 DUP4 AND SWAP2 POP POP SWAP3 SWAP2 POP POP JUMP JUMPDEST PUSH1 0x0 PUSH2 0x1452 DUP4 DUP4 PUSH2 0x1428 JUMP JUMPDEST SWAP2 POP DUP3 PUSH1 0x2 MUL DUP3 OR SWAP1 POP SWAP3 SWAP2 POP POP JUMP JUMPDEST PUSH2 0x146B DUP3 PUSH2 0xD89 JUMP JUMPDEST PUSH8 0xFFFFFFFFFFFFFFFF DUP2 GT ISZERO PUSH2 0x1484 JUMPI PUSH2 0x1483 PUSH2 0xF1F JUMP JUMPDEST JUMPDEST PUSH2 0x148E DUP3 SLOAD PUSH2 0x1158 JUMP JUMPDEST PUSH2 0x1499 DUP3 DUP3 DUP6 PUSH2 0x13D5 JUMP JUMPDEST PUSH1 0x0 PUSH1 0x20 SWAP1 POP PUSH1 0x1F DUP4 GT PUSH1 0x1 DUP2 EQ PUSH2 0x14CC JUMPI PUSH1 0x0 DUP5 ISZERO PUSH2 0x14BA JUMPI DUP3 DUP8 ADD MLOAD SWAP1 POP JUMPDEST PUSH2 0x14C4 DUP6 DUP3 PUSH2 0x1446 JUMP JUMPDEST DUP7 SSTORE POP PUSH2 0x152C JUMP JUMPDEST PUSH1 0x1F NOT DUP5 AND PUSH2 0x14DA DUP7 PUSH2 0x12B6 JUMP JUMPDEST PUSH1 0x0 JUMPDEST DUP3 DUP2 LT ISZERO PUSH2 0x1502 JUMPI DUP5 DUP10 ADD MLOAD DUP3 SSTORE PUSH1 0x1 DUP3 ADD SWAP2 POP PUSH1 0x20 DUP6 ADD SWAP5 POP PUSH1 0x20 DUP2 ADD SWAP1 POP PUSH2 0x14DD JUMP JUMPDEST DUP7 DUP4 LT ISZERO PUSH2 0x151F JUMPI DUP5 DUP10 ADD MLOAD PUSH2 0x151B PUSH1 0x1F DUP10 AND DUP3 PUSH2 0x1428 JUMP JUMPDEST DUP4 SSTORE POP JUMPDEST PUSH1 0x1 PUSH1 0x2 DUP9 MUL ADD DUP9 SSTORE POP POP POP JUMPDEST POP POP POP POP POP POP JUMP JUMPDEST PUSH1 0x0 PUSH1 0x20 DUP3 ADD SWAP1 POP DUP2 DUP2 SUB PUSH1 0x0 DUP4 ADD MSTORE PUSH2 0x154E DUP2 DUP5 PUSH2 0xDE0 JUMP JUMPDEST SWAP1 POP SWAP3 SWAP2 POP POP JUMP JUMPDEST PUSH32 0x4B697261636920646567696C73696E697A000000000000000000000000000000 PUSH1 0x0 DUP3 ADD MSTORE POP JUMP JUMPDEST PUSH1 0x0 PUSH2 0x158C PUSH1 0x11 DUP4 PUSH2 0xD94 JUMP JUMPDEST SWAP2 POP PUSH2 0x1597 DUP3 PUSH2 0x1556 JUMP JUMPDEST PUSH1 0x20 DUP3 ADD SWAP1 POP SWAP2 SWAP1 POP JUMP JUMPDEST PUSH1 0x0 PUSH1 0x20 DUP3 ADD SWAP1 POP DUP2 DUP2 SUB PUSH1 0x0 DUP4 ADD MSTORE PUSH2 0x15BB DUP2 PUSH2 0x157F JUMP JUMPDEST SWAP1 POP SWAP2 SWAP1 POP JUMP JUMPDEST PUSH32 0x4D756C6B2073616869626920646567696C73696E697A2E000000000000000000 PUSH1 0x0 DUP3 ADD MSTORE POP JUMP JUMPDEST PUSH1 0x0 PUSH2 0x15F8 PUSH1 0x17 DUP4 PUSH2 0xD94 JUMP JUMPDEST SWAP2 POP PUSH2 0x1603 DUP3 PUSH2 0x15C2 JUMP JUMPDEST PUSH1 0x20 DUP3 ADD SWAP1 POP SWAP2 SWAP1 POP JUMP JUMPDEST PUSH1 0x0 PUSH1 0x20 DUP3 ADD SWAP1 POP DUP2 DUP2 SUB PUSH1 0x0 DUP4 ADD MSTORE PUSH2 0x1627 DUP2 PUSH2 0x15EB JUMP JUMPDEST SWAP1 POP SWAP2 SWAP1 POP JUMP JUMPDEST PUSH1 0x0 PUSH1 0x40 DUP3 ADD SWAP1 POP PUSH2 0x1643 PUSH1 0x0 DUP4 ADD DUP6 PUSH2 0xEC1 JUMP JUMPDEST PUSH2 0x1650 PUSH1 0x20 DUP4 ADD DUP5 PUSH2 0xEC1 JUMP JUMPDEST SWAP4 SWAP3 POP POP POP JUMP INVALID LOG2 PUSH5 0x6970667358 0x22 SLT KECCAK256 0xC7 SELFDESTRUCT SWAP4 0xF6 0xD 0x4E 0xA9 0xE SIGNEXTEND 0xAD 0xB2 0x2F CALLDATACOPY SWAP11 DUP13 0x5F 0xE7 0x5C EXTCODESIZE 0xE7 DUP4 SHL GAS SWAP11 JUMPDEST 0xD9 DUP9 0xD0 0xC5 0xB4 0xB6 0xCF PUSH5 0x736F6C6343 STOP ADDMOD SLT STOP CALLER "
				},
				"gasEstimates": {
					"creation": {
						"codeDepositCost": "1154600",
						"executionCost": "1200",
						"totalCost": "1155800"
					},
					"external": {
						"KiraciEkle(string,string)": "infinite",
						"KiralamaOlustur(address,address,uint256,uint256)": "infinite",
						"KiralamaSonlandir(uint256)": "77931",
						"MulkEkle(string,string)": "infinite",
						"kiracilar(address)": "infinite",
						"kiralamalar(uint256)": "infinite",
						"mulkler(address)": "infinite"
					}
				},
				"methodIdentifiers": {
					"KiraciEkle(string,string)": "ca399c39",
					"KiralamaOlustur(address,address,uint256,uint256)": "ff9599c0",
					"KiralamaSonlandir(uint256)": "655c127f",
					"MulkEkle(string,string)": "78cf3fe4",
					"kiracilar(address)": "1706d4a5",
					"kiralamalar(uint256)": "539a9914",
					"mulkler(address)": "d9dbf11f"
				}
			},
			"storageLayout": {
				"storage": [
					{
						"astId": 29,
						"contract": "contracts/Task2Contract.sol:KiralamaKontrati",
						"label": "kiracilar",
						"offset": 0,
						"slot": "0",
						"type": "t_mapping(t_address,t_struct(Kiraci)8_storage)"
					},
					{
						"astId": 34,
						"contract": "contracts/Task2Contract.sol:KiralamaKontrati",
						"label": "mulkler",
						"offset": 0,
						"slot": "1",
						"type": "t_mapping(t_address,t_struct(Mulk)15_storage)"
					},
					{
						"astId": 38,
						"contract": "contracts/Task2Contract.sol:KiralamaKontrati",
						"label": "kiralamalar",
						"offset": 0,
						"slot": "2",
						"type": "t_array(t_struct(Kiralama)24_storage)dyn_storage"
					}
				],
				"types": {
					"t_address": {
						"encoding": "inplace",
						"label": "address",
						"numberOfBytes": "20"
					},
					"t_array(t_struct(Kiralama)24_storage)dyn_storage": {
						"base": "t_struct(Kiralama)24_storage",
						"encoding": "dynamic_array",
						"label": "struct KiralamaKontrati.Kiralama[]",
						"numberOfBytes": "32"
					},
					"t_mapping(t_address,t_struct(Kiraci)8_storage)": {
						"encoding": "mapping",
						"key": "t_address",
						"label": "mapping(address => struct KiralamaKontrati.Kiraci)",
						"numberOfBytes": "32",
						"value": "t_struct(Kiraci)8_storage"
					},
					"t_mapping(t_address,t_struct(Mulk)15_storage)": {
						"encoding": "mapping",
						"key": "t_address",
						"label": "mapping(address => struct KiralamaKontrati.Mulk)",
						"numberOfBytes": "32",
						"value": "t_struct(Mulk)15_storage"
					},
					"t_string_storage": {
						"encoding": "bytes",
						"label": "string",
						"numberOfBytes": "32"
					},
					"t_struct(Kiraci)8_storage": {
						"encoding": "inplace",
						"label": "struct KiralamaKontrati.Kiraci",
						"members": [
							{
								"astId": 3,
								"contract": "contracts/Task2Contract.sol:KiralamaKontrati",
								"label": "kiraciAdres",
								"offset": 0,
								"slot": "0",
								"type": "t_address"
							},
							{
								"astId": 5,
								"contract": "contracts/Task2Contract.sol:KiralamaKontrati",
								"label": "ad",
								"offset": 0,
								"slot": "1",
								"type": "t_string_storage"
							},
							{
								"astId": 7,
								"contract": "contracts/Task2Contract.sol:KiralamaKontrati",
								"label": "adresBilgisi",
								"offset": 0,
								"slot": "2",
								"type": "t_string_storage"
							}
						],
						"numberOfBytes": "96"
					},
					"t_struct(Kiralama)24_storage": {
						"encoding": "inplace",
						"label": "struct KiralamaKontrati.Kiralama",
						"members": [
							{
								"astId": 17,
								"contract": "contracts/Task2Contract.sol:KiralamaKontrati",
								"label": "kiraciAdres",
								"offset": 0,
								"slot": "0",
								"type": "t_address"
							},
							{
								"astId": 19,
								"contract": "contracts/Task2Contract.sol:KiralamaKontrati",
								"label": "mulkAdres",
								"offset": 0,
								"slot": "1",
								"type": "t_address"
							},
							{
								"astId": 21,
								"contract": "contracts/Task2Contract.sol:KiralamaKontrati",
								"label": "kiraBaslangicTarihi",
								"offset": 0,
								"slot": "2",
								"type": "t_uint256"
							},
							{
								"astId": 23,
								"contract": "contracts/Task2Contract.sol:KiralamaKontrati",
								"label": "kiraBitisTArihi",
								"offset": 0,
								"slot": "3",
								"type": "t_uint256"
							}
						],
						"numberOfBytes": "128"
					},
					"t_struct(Mulk)15_storage": {
						"encoding": "inplace",
						"label": "struct KiralamaKontrati.Mulk",
						"members": [
							{
								"astId": 10,
								"contract": "contracts/Task2Contract.sol:KiralamaKontrati",
								"label": "sahipAdres",
								"offset": 0,
								"slot": "0",
								"type": "t_address"
							},
							{
								"astId": 12,
								"contract": "contracts/Task2Contract.sol:KiralamaKontrati",
								"label": "ad",
								"offset": 0,
								"slot": "1",
								"type": "t_string_storage"
							},
							{
								"astId": 14,
								"contract": "contracts/Task2Contract.sol:KiralamaKontrati",
								"label": "adresBilgisi",
								"offset": 0,
								"slot": "2",
								"type": "t_string_storage"
							}
						],
						"numberOfBytes": "96"
					},
					"t_uint256": {
						"encoding": "inplace",
						"label": "uint256",
						"numberOfBytes": "32"
					}
				}
			},
			"userdoc": {
				"kind": "user",
				"methods": {},
				"version": 1
			}
		}
	}
}